{
  "contractName": "ChainlinkAdaptor",
  "abi": [
    {
      "inputs": [
        {
          "internalType": "address",
          "name": "_nativeTokenPriceSource",
          "type": "address"
        }
      ],
      "payable": false,
      "stateMutability": "nonpayable",
      "type": "constructor"
    },
    {
      "anonymous": false,
      "inputs": [
        {
          "indexed": true,
          "internalType": "address",
          "name": "asset",
          "type": "address"
        },
        {
          "indexed": true,
          "internalType": "address",
          "name": "source",
          "type": "address"
        }
      ],
      "name": "AssetPriceSourceUpdated",
      "type": "event"
    },
    {
      "constant": true,
      "inputs": [
        {
          "internalType": "address",
          "name": "",
          "type": "address"
        }
      ],
      "name": "assetsPriceSources",
      "outputs": [
        {
          "internalType": "contract ChainlinkAggregatorV3Interface",
          "name": "",
          "type": "address"
        }
      ],
      "payable": false,
      "stateMutability": "view",
      "type": "function"
    },
    {
      "constant": true,
      "inputs": [],
      "name": "fallbackPriceOracle",
      "outputs": [
        {
          "internalType": "contract PriceOracle",
          "name": "",
          "type": "address"
        }
      ],
      "payable": false,
      "stateMutability": "view",
      "type": "function"
    },
    {
      "constant": true,
      "inputs": [],
      "name": "governance",
      "outputs": [
        {
          "internalType": "address",
          "name": "",
          "type": "address"
        }
      ],
      "payable": false,
      "stateMutability": "view",
      "type": "function"
    },
    {
      "constant": true,
      "inputs": [],
      "name": "isPriceOracle",
      "outputs": [
        {
          "internalType": "bool",
          "name": "",
          "type": "bool"
        }
      ],
      "payable": false,
      "stateMutability": "view",
      "type": "function"
    },
    {
      "constant": true,
      "inputs": [],
      "name": "nativeTokenPriceSource",
      "outputs": [
        {
          "internalType": "contract ChainlinkAggregatorV3Interface",
          "name": "",
          "type": "address"
        }
      ],
      "payable": false,
      "stateMutability": "view",
      "type": "function"
    },
    {
      "constant": true,
      "inputs": [
        {
          "internalType": "contract CToken",
          "name": "cToken",
          "type": "address"
        }
      ],
      "name": "getUnderlyingPrice",
      "outputs": [
        {
          "internalType": "uint256",
          "name": "",
          "type": "uint256"
        }
      ],
      "payable": false,
      "stateMutability": "view",
      "type": "function"
    },
    {
      "constant": true,
      "inputs": [
        {
          "internalType": "contract CToken",
          "name": "cToken",
          "type": "address"
        }
      ],
      "name": "getUnderlyingPriceFromFallback",
      "outputs": [
        {
          "internalType": "uint256",
          "name": "",
          "type": "uint256"
        }
      ],
      "payable": false,
      "stateMutability": "view",
      "type": "function"
    },
    {
      "constant": true,
      "inputs": [
        {
          "internalType": "contract ChainlinkAggregatorV3Interface",
          "name": "chainlinkPriceSource",
          "type": "address"
        },
        {
          "internalType": "contract CToken",
          "name": "cToken",
          "type": "address"
        }
      ],
      "name": "preCheckPrice",
      "outputs": [
        {
          "internalType": "uint256",
          "name": "priceFromChainlink",
          "type": "uint256"
        },
        {
          "internalType": "uint256",
          "name": "priceFromFallback",
          "type": "uint256"
        }
      ],
      "payable": false,
      "stateMutability": "view",
      "type": "function"
    },
    {
      "constant": true,
      "inputs": [
        {
          "internalType": "address",
          "name": "asset",
          "type": "address"
        }
      ],
      "name": "getSourcePrice",
      "outputs": [
        {
          "internalType": "uint80",
          "name": "roundId",
          "type": "uint80"
        },
        {
          "internalType": "int256",
          "name": "answer",
          "type": "int256"
        },
        {
          "internalType": "uint256",
          "name": "startedAt",
          "type": "uint256"
        },
        {
          "internalType": "uint256",
          "name": "updatedAt",
          "type": "uint256"
        },
        {
          "internalType": "uint80",
          "name": "answeredInRound",
          "type": "uint80"
        }
      ],
      "payable": false,
      "stateMutability": "view",
      "type": "function"
    },
    {
      "constant": true,
      "inputs": [
        {
          "internalType": "contract ChainlinkAggregatorV3Interface",
          "name": "priceSource",
          "type": "address"
        }
      ],
      "name": "getPrice",
      "outputs": [
        {
          "internalType": "uint256",
          "name": "",
          "type": "uint256"
        }
      ],
      "payable": false,
      "stateMutability": "view",
      "type": "function"
    },
    {
      "constant": false,
      "inputs": [
        {
          "internalType": "address[]",
          "name": "assets",
          "type": "address[]"
        },
        {
          "internalType": "address[]",
          "name": "sources",
          "type": "address[]"
        }
      ],
      "name": "setAssetSources",
      "outputs": [],
      "payable": false,
      "stateMutability": "nonpayable",
      "type": "function"
    },
    {
      "constant": false,
      "inputs": [
        {
          "internalType": "address",
          "name": "_fallbackPriceOracle",
          "type": "address"
        }
      ],
      "name": "setFallbackPriceOracle",
      "outputs": [],
      "payable": false,
      "stateMutability": "nonpayable",
      "type": "function"
    }
  ],
  "bytecode": "0x608060405234801561001057600080fd5b50604051610e06380380610e068339818101604052602081101561003357600080fd5b5051600080546001600160a01b03199081163317909155600280546001600160a01b0390931692909116919091179055610d94806100726000396000f3fe608060405234801561001057600080fd5b50600436106100a35760003560e01c8062ba34a5146100a85780632806bce2146100ea57806341976e091461014c5780635aa6e675146101845780636529ef001461018c57806366331bba146101b457806395ebfb0c146101d0578063abfd5310146101d8578063c62f9e1614610296578063cc287b761461029e578063f2a768e9146102c4578063fc57d4df1461030b575b600080fd5b6100ce600480360360208110156100be57600080fd5b50356001600160a01b0316610331565b604080516001600160a01b039092168252519081900360200190f35b6101106004803603602081101561010057600080fd5b50356001600160a01b031661034c565b604080516001600160501b0396871681526020810195909552848101939093526060840191909152909216608082015290519081900360a00190f35b6101726004803603602081101561016257600080fd5b50356001600160a01b03166103fa565b60408051918252519081900360200190f35b6100ce610482565b6101b2600480360360208110156101a257600080fd5b50356001600160a01b0316610491565b005b6101bc610509565b604080519115158252519081900360200190f35b6100ce61050e565b6101b2600480360360408110156101ee57600080fd5b810190602081018135600160201b81111561020857600080fd5b82018360208201111561021a57600080fd5b803590602001918460208302840111600160201b8311171561023b57600080fd5b919390929091602081019035600160201b81111561025857600080fd5b82018360208201111561026a57600080fd5b803590602001918460208302840111600160201b8311171561028b57600080fd5b50909250905061051d565b6100ce6105e6565b610172600480360360208110156102b457600080fd5b50356001600160a01b03166105f5565b6102f2600480360360408110156102da57600080fd5b506001600160a01b0381358116916020013516610691565b6040805192835260208301919091528051918290030190f35b6101726004803603602081101561032157600080fd5b50356001600160a01b03166106b2565b6001602052600090815260409020546001600160a01b031681565b6001600160a01b03808216600090815260016020526040808220548151633fabe5a360e21b8152915192938493849384938493169163feaf968c9160048082019260a092909190829003018186803b1580156103a757600080fd5b505afa1580156103bb573d6000803e3d6000fd5b505050506040513d60a08110156103d157600080fd5b508051602082015160408301516060840151608090940151929a91995097509195509350915050565b600080826001600160a01b031663feaf968c6040518163ffffffff1660e01b815260040160a06040518083038186803b15801561043657600080fd5b505afa15801561044a573d6000803e3d6000fd5b505050506040513d60a081101561046057600080fd5b50602001519050600081131561047757905061047d565b60009150505b919050565b6000546001600160a01b031681565b6000546001600160a01b031633146104e7576040805162461bcd60e51b815260206004820152601460248201527323b7bb32b93730b731b2903932b8bab4b932b21760611b604482015290519081900360640190fd5b600380546001600160a01b0319166001600160a01b0392909216919091179055565b600181565b6002546001600160a01b031681565b6000546001600160a01b03163314610573576040805162461bcd60e51b815260206004820152601460248201527323b7bb32b93730b731b2903932b8bab4b932b21760611b604482015290519081900360640190fd5b6105e0848480806020026020016040519081016040528093929190818152602001838360200280828437600092019190915250506040805160208088028281018201909352878252909350879250869182918501908490808284376000920191909152506107f792505050565b50505050565b6003546001600160a01b031681565b6003546000906001600160a01b031615610689576003546040805163fc57d4df60e01b81526001600160a01b0385811660048301529151919092169163fc57d4df916024808301926020929190829003018186803b15801561065657600080fd5b505afa15801561066a573d6000803e3d6000fd5b505050506040513d602081101561068057600080fd5b5051905061047d565b506000919050565b60008061069e848461093c565b6106a7846105f5565b909590945092505050565b6000816001600160a01b0316639af4ee7e6040518163ffffffff1660e01b815260040160206040518083038186803b1580156106ed57600080fd5b505afa158015610701573d6000803e3d6000fd5b505050506040513d602081101561071757600080fd5b50511561072d5750670de0b6b3a764000061047d565b6000826001600160a01b0316636f307dc36040518163ffffffff1660e01b815260040160206040518083038186803b15801561076857600080fd5b505afa15801561077c573d6000803e3d6000fd5b505050506040513d602081101561079257600080fd5b50516001600160a01b0380821660009081526001602052604090205491925016806107c9576107c0846105f5565b9250505061047d565b60006107d5828661093c565b9050806107ef576107e5856105f5565b935050505061047d565b949350505050565b805182511461084d576040805162461bcd60e51b815260206004820152601d60248201527f496e636f6e73697374656e7420706172616d65746572206c656e677468000000604482015290519081900360640190fd5b60005b82518110156109375781818151811061086557fe5b60200260200101516001600085848151811061087d57fe5b60200260200101516001600160a01b03166001600160a01b0316815260200190815260200160002060006101000a8154816001600160a01b0302191690836001600160a01b031602179055508181815181106108d557fe5b60200260200101516001600160a01b03168382815181106108f257fe5b60200260200101516001600160a01b03167fe6c35d0425da27d8f991ada353619254c33e5094fc7e19154e02feb39193739060405160405180910390a3600101610850565b505050565b600080836001600160a01b031663313ce5676040518163ffffffff1660e01b815260040160206040518083038186803b15801561097857600080fd5b505afa15801561098c573d6000803e3d6000fd5b505050506040513d60208110156109a257600080fd5b505160408051636f307dc360e01b8152905160ff90921692506000916001600160a01b03861691636f307dc3916004808301926020929190829003018186803b1580156109ee57600080fd5b505afa158015610a02573d6000803e3d6000fd5b505050506040513d6020811015610a1857600080fd5b50516040805163313ce56760e01b815290519192506000916001600160a01b0384169163313ce567916004808301926020929190829003018186803b158015610a6057600080fd5b505afa158015610a74573d6000803e3d6000fd5b505050506040513d6020811015610a8a57600080fd5b505160ff1690506000610a9c876103fa565b90506000600260009054906101000a90046001600160a01b03166001600160a01b031663313ce5676040518163ffffffff1660e01b815260040160206040518083038186803b158015610aee57600080fd5b505afa158015610b02573d6000803e3d6000fd5b505050506040513d6020811015610b1857600080fd5b505160025460ff9091169150600090610b39906001600160a01b03166103fa565b9050821580610b46575080155b15610b5a5760009650505050505050610bfc565b81861415610bba57610bad610b7982600a87900a63ffffffff610c0216565b610ba1670de0b6b3a7640000610b95878263ffffffff610c0216565b9063ffffffff610c0216565b9063ffffffff610c6216565b9650505050505050610bfc565b610bad610bda87600a0a610b9587600a0a85610c0290919063ffffffff16565b610ba1670de0b6b3a7640000610b95600a87900a81898463ffffffff610c0216565b92915050565b600082610c1157506000610bfc565b82820282848281610c1e57fe5b0414610c5b5760405162461bcd60e51b8152600401808060200182810382526021815260200180610d3f6021913960400191505060405180910390fd5b9392505050565b6000610c5b83836040518060400160405280601a815260200179536166654d6174683a206469766973696f6e206279207a65726f60301b81525060008183610d285760405162461bcd60e51b81526004018080602001828103825283818151815260200191508051906020019080838360005b83811015610ced578181015183820152602001610cd5565b50505050905090810190601f168015610d1a5780820380516001836020036101000a031916815260200191505b509250505060405180910390fd5b506000838581610d3457fe5b049594505050505056fe536166654d6174683a206d756c7469706c69636174696f6e206f766572666c6f77a265627a7a7231582014132c8e891f9d7e62280e60f8841205ae77fb42090bc04f30b45eca22b1860064736f6c63430005100032",
  "source": "pragma solidity ^0.5.16;\n\nimport \"./compound/SafeMath.sol\";\nimport \"./compound/PriceOracle.sol\";\nimport \"./compound/CErc20.sol\";\nimport \"./ChainlinkAggregatorV3Interface.sol\";\nimport \"./SToken.sol\";\n\ncontract ChainlinkAdaptor is PriceOracle {\n    using SafeMath for uint256;\n\n    address public governance;\n\n    mapping(address => ChainlinkAggregatorV3Interface) public assetsPriceSources;\n    ChainlinkAggregatorV3Interface public nativeTokenPriceSource;\n\n    PriceOracle public fallbackPriceOracle;\n\n    event AssetPriceSourceUpdated(address indexed asset, address indexed source);\n\n    modifier onlyGovernance {\n        require(msg.sender == governance, \"Governance required.\");\n        _;\n    }\n\n    constructor(address _nativeTokenPriceSource) public {\n        governance = msg.sender;\n        nativeTokenPriceSource = ChainlinkAggregatorV3Interface(_nativeTokenPriceSource);\n    }\n\n    function getUnderlyingPrice(CToken cToken) external view returns (uint) {\n        if (SToken(address(cToken)).isNativeToken()) {\n            return 1e18;\n        }\n\n        address asset = address(CErc20(address(cToken)).underlying());\n        ChainlinkAggregatorV3Interface priceSource = assetsPriceSources[asset];\n\n        if (address(priceSource) == address(0x0)) {\n            return getUnderlyingPriceFromFallback(cToken);\n        }\n\n        uint256 priceFromChainlink = getUnderlyingPriceFromChainlink(priceSource, cToken);\n        if (priceFromChainlink == 0) {\n            return getUnderlyingPriceFromFallback(cToken);\n        }\n        return priceFromChainlink;\n    }\n\n    function getUnderlyingPriceFromFallback(CToken cToken) public view returns (uint) {\n        if (address(fallbackPriceOracle) != address(0x0)) {\n            return fallbackPriceOracle.getUnderlyingPrice(cToken);\n        }\n        return 0;\n    }\n\n    function getUnderlyingPriceFromChainlink(ChainlinkAggregatorV3Interface chainlinkPriceSource, CToken cToken) view internal returns(uint256) {\n        uint256 assetPriceDecimals = chainlinkPriceSource.decimals();\n        address asset = address(CErc20(address(cToken)).underlying());\n\n        uint256 assetDecimals = CErc20(address(asset)).decimals();\n        uint256 assetPriceInUsd = getPrice(chainlinkPriceSource);\n\n        uint256 nativeTokenPriceDecimals = nativeTokenPriceSource.decimals();\n        uint256 nativeTokenPriceInUsd = getPrice(nativeTokenPriceSource);\n\n        if (assetPriceInUsd == 0 || nativeTokenPriceInUsd == 0) {\n            return 0;\n        }\n        if (assetPriceDecimals == nativeTokenPriceDecimals) {\n            return assetPriceInUsd.mul(10 ** 18).mul(10 ** 18).div(nativeTokenPriceInUsd.mul(10 ** assetDecimals));\n        } else {\n            return assetPriceInUsd.mul(10 ** 18).mul(10 ** nativeTokenPriceDecimals).mul(10 ** 18).div(nativeTokenPriceInUsd.mul(10 ** assetDecimals).mul(10 ** assetPriceDecimals));\n        }\n    }\n\n    function preCheckPrice(ChainlinkAggregatorV3Interface chainlinkPriceSource, CToken cToken) view external returns(uint256 priceFromChainlink, uint256 priceFromFallback) {\n        (priceFromChainlink, priceFromFallback) = (getUnderlyingPriceFromChainlink(chainlinkPriceSource, cToken), getUnderlyingPriceFromFallback(cToken));\n    }\n\n    function getSourcePrice(address asset) view public returns (uint80 roundId, int256 answer, uint256 startedAt, uint256 updatedAt, uint80 answeredInRound) {\n        return assetsPriceSources[asset].latestRoundData();\n    }\n\n    function getPrice(ChainlinkAggregatorV3Interface priceSource) public view returns (uint256) {\n        (,int256 answer,,,) = priceSource.latestRoundData();\n        if (answer > 0) {\n            return uint256(answer);\n        } else {\n            return 0;\n        }\n    }\n\n    function setAssetSources(address[] calldata assets, address[] calldata sources) external onlyGovernance {\n        _setAssetsSources(assets, sources);\n    }\n\n    function setFallbackPriceOracle(address _fallbackPriceOracle) external onlyGovernance {\n        fallbackPriceOracle = PriceOracle(_fallbackPriceOracle);\n    }\n\n    function _setAssetsSources(address[] memory assets, address[] memory sources) internal {\n        require(assets.length == sources.length, 'Inconsistent parameter length');\n        for (uint256 i = 0; i < assets.length; i++) {\n            assetsPriceSources[assets[i]] = ChainlinkAggregatorV3Interface(sources[i]);\n            emit AssetPriceSourceUpdated(assets[i], sources[i]);\n        }\n    }\n}",
  "sourcePath": "/Users/xingchen/github/Quicksilver/contracts/ChainlinkAdaptor.sol",
  "compiler": {
    "name": "solc",
    "version": "0.5.16+commit.9c3226ce.Emscripten.clang"
  },
  "schemaVersion": "3.3.4",
  "updatedAt": "2021-05-26T14:36:04.585Z",
  "networkType": "ethereum",
  "devdoc": {
    "methods": {}
  },
  "userdoc": {
    "methods": {}
  }
}