{
  "contractName": "CompoundLens",
  "abi": [
    {
      "constant": false,
      "inputs": [
        {
          "internalType": "contract CToken",
          "name": "cToken",
          "type": "address"
        }
      ],
      "name": "cTokenMetadata",
      "outputs": [
        {
          "components": [
            {
              "internalType": "address",
              "name": "cToken",
              "type": "address"
            },
            {
              "internalType": "uint256",
              "name": "exchangeRateCurrent",
              "type": "uint256"
            },
            {
              "internalType": "uint256",
              "name": "supplyRatePerBlock",
              "type": "uint256"
            },
            {
              "internalType": "uint256",
              "name": "borrowRatePerBlock",
              "type": "uint256"
            },
            {
              "internalType": "uint256",
              "name": "reserveFactorMantissa",
              "type": "uint256"
            },
            {
              "internalType": "uint256",
              "name": "totalBorrows",
              "type": "uint256"
            },
            {
              "internalType": "uint256",
              "name": "totalReserves",
              "type": "uint256"
            },
            {
              "internalType": "uint256",
              "name": "totalSupply",
              "type": "uint256"
            },
            {
              "internalType": "uint256",
              "name": "totalCash",
              "type": "uint256"
            },
            {
              "internalType": "bool",
              "name": "isListed",
              "type": "bool"
            },
            {
              "internalType": "uint256",
              "name": "collateralFactorMantissa",
              "type": "uint256"
            },
            {
              "internalType": "address",
              "name": "underlyingAssetAddress",
              "type": "address"
            },
            {
              "internalType": "uint256",
              "name": "cTokenDecimals",
              "type": "uint256"
            },
            {
              "internalType": "uint256",
              "name": "underlyingDecimals",
              "type": "uint256"
            }
          ],
          "internalType": "struct CompoundLens.CTokenMetadata",
          "name": "",
          "type": "tuple"
        }
      ],
      "payable": false,
      "stateMutability": "nonpayable",
      "type": "function"
    },
    {
      "constant": false,
      "inputs": [
        {
          "internalType": "contract CToken[]",
          "name": "cTokens",
          "type": "address[]"
        }
      ],
      "name": "cTokenMetadataAll",
      "outputs": [
        {
          "components": [
            {
              "internalType": "address",
              "name": "cToken",
              "type": "address"
            },
            {
              "internalType": "uint256",
              "name": "exchangeRateCurrent",
              "type": "uint256"
            },
            {
              "internalType": "uint256",
              "name": "supplyRatePerBlock",
              "type": "uint256"
            },
            {
              "internalType": "uint256",
              "name": "borrowRatePerBlock",
              "type": "uint256"
            },
            {
              "internalType": "uint256",
              "name": "reserveFactorMantissa",
              "type": "uint256"
            },
            {
              "internalType": "uint256",
              "name": "totalBorrows",
              "type": "uint256"
            },
            {
              "internalType": "uint256",
              "name": "totalReserves",
              "type": "uint256"
            },
            {
              "internalType": "uint256",
              "name": "totalSupply",
              "type": "uint256"
            },
            {
              "internalType": "uint256",
              "name": "totalCash",
              "type": "uint256"
            },
            {
              "internalType": "bool",
              "name": "isListed",
              "type": "bool"
            },
            {
              "internalType": "uint256",
              "name": "collateralFactorMantissa",
              "type": "uint256"
            },
            {
              "internalType": "address",
              "name": "underlyingAssetAddress",
              "type": "address"
            },
            {
              "internalType": "uint256",
              "name": "cTokenDecimals",
              "type": "uint256"
            },
            {
              "internalType": "uint256",
              "name": "underlyingDecimals",
              "type": "uint256"
            }
          ],
          "internalType": "struct CompoundLens.CTokenMetadata[]",
          "name": "",
          "type": "tuple[]"
        }
      ],
      "payable": false,
      "stateMutability": "nonpayable",
      "type": "function"
    },
    {
      "constant": false,
      "inputs": [
        {
          "internalType": "contract CToken",
          "name": "cToken",
          "type": "address"
        },
        {
          "internalType": "address payable",
          "name": "account",
          "type": "address"
        }
      ],
      "name": "cTokenBalances",
      "outputs": [
        {
          "components": [
            {
              "internalType": "address",
              "name": "cToken",
              "type": "address"
            },
            {
              "internalType": "uint256",
              "name": "balanceOf",
              "type": "uint256"
            },
            {
              "internalType": "uint256",
              "name": "borrowBalanceCurrent",
              "type": "uint256"
            },
            {
              "internalType": "uint256",
              "name": "balanceOfUnderlying",
              "type": "uint256"
            },
            {
              "internalType": "uint256",
              "name": "tokenBalance",
              "type": "uint256"
            },
            {
              "internalType": "uint256",
              "name": "tokenAllowance",
              "type": "uint256"
            }
          ],
          "internalType": "struct CompoundLens.CTokenBalances",
          "name": "",
          "type": "tuple"
        }
      ],
      "payable": false,
      "stateMutability": "nonpayable",
      "type": "function"
    },
    {
      "constant": false,
      "inputs": [
        {
          "internalType": "contract CToken[]",
          "name": "cTokens",
          "type": "address[]"
        },
        {
          "internalType": "address payable",
          "name": "account",
          "type": "address"
        }
      ],
      "name": "cTokenBalancesAll",
      "outputs": [
        {
          "components": [
            {
              "internalType": "address",
              "name": "cToken",
              "type": "address"
            },
            {
              "internalType": "uint256",
              "name": "balanceOf",
              "type": "uint256"
            },
            {
              "internalType": "uint256",
              "name": "borrowBalanceCurrent",
              "type": "uint256"
            },
            {
              "internalType": "uint256",
              "name": "balanceOfUnderlying",
              "type": "uint256"
            },
            {
              "internalType": "uint256",
              "name": "tokenBalance",
              "type": "uint256"
            },
            {
              "internalType": "uint256",
              "name": "tokenAllowance",
              "type": "uint256"
            }
          ],
          "internalType": "struct CompoundLens.CTokenBalances[]",
          "name": "",
          "type": "tuple[]"
        }
      ],
      "payable": false,
      "stateMutability": "nonpayable",
      "type": "function"
    },
    {
      "constant": true,
      "inputs": [
        {
          "internalType": "contract CToken",
          "name": "cToken",
          "type": "address"
        }
      ],
      "name": "cTokenUnderlyingPrice",
      "outputs": [
        {
          "components": [
            {
              "internalType": "address",
              "name": "cToken",
              "type": "address"
            },
            {
              "internalType": "uint256",
              "name": "underlyingPrice",
              "type": "uint256"
            }
          ],
          "internalType": "struct CompoundLens.CTokenUnderlyingPrice",
          "name": "",
          "type": "tuple"
        }
      ],
      "payable": false,
      "stateMutability": "view",
      "type": "function"
    },
    {
      "constant": true,
      "inputs": [
        {
          "internalType": "contract CToken[]",
          "name": "cTokens",
          "type": "address[]"
        }
      ],
      "name": "cTokenUnderlyingPriceAll",
      "outputs": [
        {
          "components": [
            {
              "internalType": "address",
              "name": "cToken",
              "type": "address"
            },
            {
              "internalType": "uint256",
              "name": "underlyingPrice",
              "type": "uint256"
            }
          ],
          "internalType": "struct CompoundLens.CTokenUnderlyingPrice[]",
          "name": "",
          "type": "tuple[]"
        }
      ],
      "payable": false,
      "stateMutability": "view",
      "type": "function"
    },
    {
      "constant": true,
      "inputs": [
        {
          "internalType": "contract ComptrollerLensInterface",
          "name": "comptroller",
          "type": "address"
        },
        {
          "internalType": "address",
          "name": "account",
          "type": "address"
        }
      ],
      "name": "getAccountLimits",
      "outputs": [
        {
          "components": [
            {
              "internalType": "contract CToken[]",
              "name": "markets",
              "type": "address[]"
            },
            {
              "internalType": "uint256",
              "name": "liquidity",
              "type": "uint256"
            },
            {
              "internalType": "uint256",
              "name": "shortfall",
              "type": "uint256"
            }
          ],
          "internalType": "struct CompoundLens.AccountLimits",
          "name": "",
          "type": "tuple"
        }
      ],
      "payable": false,
      "stateMutability": "view",
      "type": "function"
    },
    {
      "constant": true,
      "inputs": [
        {
          "internalType": "contract GovernorAlpha",
          "name": "governor",
          "type": "address"
        },
        {
          "internalType": "address",
          "name": "voter",
          "type": "address"
        },
        {
          "internalType": "uint256[]",
          "name": "proposalIds",
          "type": "uint256[]"
        }
      ],
      "name": "getGovReceipts",
      "outputs": [
        {
          "components": [
            {
              "internalType": "uint256",
              "name": "proposalId",
              "type": "uint256"
            },
            {
              "internalType": "bool",
              "name": "hasVoted",
              "type": "bool"
            },
            {
              "internalType": "bool",
              "name": "support",
              "type": "bool"
            },
            {
              "internalType": "uint96",
              "name": "votes",
              "type": "uint96"
            }
          ],
          "internalType": "struct CompoundLens.GovReceipt[]",
          "name": "",
          "type": "tuple[]"
        }
      ],
      "payable": false,
      "stateMutability": "view",
      "type": "function"
    },
    {
      "constant": true,
      "inputs": [
        {
          "internalType": "contract GovernorAlpha",
          "name": "governor",
          "type": "address"
        },
        {
          "internalType": "uint256[]",
          "name": "proposalIds",
          "type": "uint256[]"
        }
      ],
      "name": "getGovProposals",
      "outputs": [
        {
          "components": [
            {
              "internalType": "uint256",
              "name": "proposalId",
              "type": "uint256"
            },
            {
              "internalType": "address",
              "name": "proposer",
              "type": "address"
            },
            {
              "internalType": "uint256",
              "name": "eta",
              "type": "uint256"
            },
            {
              "internalType": "address[]",
              "name": "targets",
              "type": "address[]"
            },
            {
              "internalType": "uint256[]",
              "name": "values",
              "type": "uint256[]"
            },
            {
              "internalType": "string[]",
              "name": "signatures",
              "type": "string[]"
            },
            {
              "internalType": "bytes[]",
              "name": "calldatas",
              "type": "bytes[]"
            },
            {
              "internalType": "uint256",
              "name": "startBlock",
              "type": "uint256"
            },
            {
              "internalType": "uint256",
              "name": "endBlock",
              "type": "uint256"
            },
            {
              "internalType": "uint256",
              "name": "forVotes",
              "type": "uint256"
            },
            {
              "internalType": "uint256",
              "name": "againstVotes",
              "type": "uint256"
            },
            {
              "internalType": "bool",
              "name": "canceled",
              "type": "bool"
            },
            {
              "internalType": "bool",
              "name": "executed",
              "type": "bool"
            }
          ],
          "internalType": "struct CompoundLens.GovProposal[]",
          "name": "",
          "type": "tuple[]"
        }
      ],
      "payable": false,
      "stateMutability": "view",
      "type": "function"
    },
    {
      "constant": true,
      "inputs": [
        {
          "internalType": "contract Comp",
          "name": "comp",
          "type": "address"
        },
        {
          "internalType": "address",
          "name": "account",
          "type": "address"
        }
      ],
      "name": "getCompBalanceMetadata",
      "outputs": [
        {
          "components": [
            {
              "internalType": "uint256",
              "name": "balance",
              "type": "uint256"
            },
            {
              "internalType": "uint256",
              "name": "votes",
              "type": "uint256"
            },
            {
              "internalType": "address",
              "name": "delegate",
              "type": "address"
            }
          ],
          "internalType": "struct CompoundLens.CompBalanceMetadata",
          "name": "",
          "type": "tuple"
        }
      ],
      "payable": false,
      "stateMutability": "view",
      "type": "function"
    },
    {
      "constant": false,
      "inputs": [
        {
          "internalType": "contract Comp",
          "name": "comp",
          "type": "address"
        },
        {
          "internalType": "contract ComptrollerLensInterface",
          "name": "comptroller",
          "type": "address"
        },
        {
          "internalType": "address",
          "name": "account",
          "type": "address"
        }
      ],
      "name": "getCompBalanceMetadataExt",
      "outputs": [
        {
          "components": [
            {
              "internalType": "uint256",
              "name": "balance",
              "type": "uint256"
            },
            {
              "internalType": "uint256",
              "name": "votes",
              "type": "uint256"
            },
            {
              "internalType": "address",
              "name": "delegate",
              "type": "address"
            },
            {
              "internalType": "uint256",
              "name": "allocated",
              "type": "uint256"
            }
          ],
          "internalType": "struct CompoundLens.CompBalanceMetadataExt",
          "name": "",
          "type": "tuple"
        }
      ],
      "payable": false,
      "stateMutability": "nonpayable",
      "type": "function"
    },
    {
      "constant": false,
      "inputs": [
        {
          "internalType": "contract Comp",
          "name": "comp",
          "type": "address"
        },
        {
          "internalType": "contract ComptrollerLensInterface",
          "name": "comptroller",
          "type": "address"
        },
        {
          "internalType": "address",
          "name": "account",
          "type": "address"
        }
      ],
      "name": "getCompBalanceWithAccrued",
      "outputs": [
        {
          "internalType": "uint256",
          "name": "balance",
          "type": "uint256"
        },
        {
          "internalType": "uint256",
          "name": "allocated",
          "type": "uint256"
        }
      ],
      "payable": false,
      "stateMutability": "nonpayable",
      "type": "function"
    },
    {
      "constant": true,
      "inputs": [
        {
          "internalType": "contract Comp",
          "name": "comp",
          "type": "address"
        },
        {
          "internalType": "address",
          "name": "account",
          "type": "address"
        },
        {
          "internalType": "uint32[]",
          "name": "blockNumbers",
          "type": "uint32[]"
        }
      ],
      "name": "getCompVotes",
      "outputs": [
        {
          "components": [
            {
              "internalType": "uint256",
              "name": "blockNumber",
              "type": "uint256"
            },
            {
              "internalType": "uint256",
              "name": "votes",
              "type": "uint256"
            }
          ],
          "internalType": "struct CompoundLens.CompVotes[]",
          "name": "",
          "type": "tuple[]"
        }
      ],
      "payable": false,
      "stateMutability": "view",
      "type": "function"
    }
  ],
  "bytecode": "0x608060405234801561001057600080fd5b5061377c806100206000396000f3fe608060405234801561001057600080fd5b50600436106100af5760003560e01c80630972bf8b146100b4578063158eca8b146100dd5780631ea63741146100fd5780632b2d5ed61461011d578063416405d71461013d5780634b70d84b1461015d578063595642191461017d5780637dd8f6d91461019d57806396994869146101bd578063995ed99f146101dd578063bdf950c9146101fd578063c5ae59341461021d578063fb7638c11461023d575b600080fd5b6100c76100c2366004612722565b61025e565b6040516100d491906134c2565b60405180910390f35b6100f06100eb3660046127e4565b610301565b6040516100d49190613566565b61011061010b366004612899565b610a84565b6040516100d49190613583565b61013061012b3660046126e1565b610e0b565b6040516100d491906134e4565b61015061014b366004612802565b610ea7565b6040516100d49190613591565b61017061016b3660046126e1565b611050565b6040516100d491906134d3565b61019061018b366004612832565b6110e1565b6040516100d491906134f5565b6101b06101ab366004612802565b611239565b6040516100d49190613547565b6101d06101cb366004612954565b611375565b6040516100d49190613506565b6101f06101eb3660046128fa565b611531565b6040516100d49190613517565b61021061020b366004612802565b61168b565b6040516100d49190613558565b61023061022b3660046127e4565b611a2b565b6040516100d49190613575565b61025061024b366004612899565b611bbd565b6040516100d49291906135bb565b6040805183815260208085028201019091526060908390829082801561029e57816020015b61028b611feb565b8152602001906001900390816102835790505b50905060005b828110156102f5576102d68787838181106102bb57fe5b90506020020160206102d091908101906127e4565b8661168b565b8282815181106102e257fe5b60209081029190910101526001016102a4565b509150505b9392505050565b61030961202a565b6000826001600160a01b031663bd6d894d6040518163ffffffff1660e01b8152600401602060405180830381600087803b15801561034657600080fd5b505af115801561035a573d6000803e3d6000fd5b505050506040513d601f19601f8201168201806040525061037e91908101906129fb565b90506000836001600160a01b0316635fe3b5676040518163ffffffff1660e01b815260040160206040518083038186803b1580156103bb57600080fd5b505afa1580156103cf573d6000803e3d6000fd5b505050506040513d601f19601f820116820180604052506103f391908101906128dc565b9050600080826001600160a01b0316638e8f294b876040518263ffffffff1660e01b81526004016104249190613470565b604080518083038186803b15801561043b57600080fd5b505afa15801561044f573d6000803e3d6000fd5b505050506040513d601f19601f8201168201806040525061047391908101906127aa565b91509150600080610513886001600160a01b03166395d89b416040518163ffffffff1660e01b815260040160006040518083038186803b1580156104b657600080fd5b505afa1580156104ca573d6000803e3d6000fd5b505050506040513d6000823e601f3d908101601f191682016040526104f291908101906129a9565b604051806040016040528060038152602001621d521560ea1b815250611e10565b156105245750600090506012610684565b6000889050806001600160a01b0316636f307dc36040518163ffffffff1660e01b815260040160206040518083038186803b15801561056257600080fd5b505afa158015610576573d6000803e3d6000fd5b505050506040513d601f19601f8201168201806040525061059a91908101906125ff565b9250806001600160a01b0316636f307dc36040518163ffffffff1660e01b815260040160206040518083038186803b1580156105d557600080fd5b505afa1580156105e9573d6000803e3d6000fd5b505050506040513d601f19601f8201168201806040525061060d91908101906125ff565b6001600160a01b031663313ce5676040518163ffffffff1660e01b815260040160206040518083038186803b15801561064557600080fd5b505afa158015610659573d6000803e3d6000fd5b505050506040513d601f19601f8201168201806040525061067d9190810190612b3e565b60ff169150505b604051806101c00160405280896001600160a01b03168152602001878152602001896001600160a01b031663ae9d70b06040518163ffffffff1660e01b815260040160206040518083038186803b1580156106de57600080fd5b505afa1580156106f2573d6000803e3d6000fd5b505050506040513d601f19601f8201168201806040525061071691908101906129fb565b8152602001896001600160a01b031663f8f9da286040518163ffffffff1660e01b815260040160206040518083038186803b15801561075457600080fd5b505afa158015610768573d6000803e3d6000fd5b505050506040513d601f19601f8201168201806040525061078c91908101906129fb565b8152602001896001600160a01b031663173b99046040518163ffffffff1660e01b815260040160206040518083038186803b1580156107ca57600080fd5b505afa1580156107de573d6000803e3d6000fd5b505050506040513d601f19601f8201168201806040525061080291908101906129fb565b8152602001896001600160a01b03166347bd37186040518163ffffffff1660e01b815260040160206040518083038186803b15801561084057600080fd5b505afa158015610854573d6000803e3d6000fd5b505050506040513d601f19601f8201168201806040525061087891908101906129fb565b8152602001896001600160a01b0316638f840ddd6040518163ffffffff1660e01b815260040160206040518083038186803b1580156108b657600080fd5b505afa1580156108ca573d6000803e3d6000fd5b505050506040513d601f19601f820116820180604052506108ee91908101906129fb565b8152602001896001600160a01b03166318160ddd6040518163ffffffff1660e01b815260040160206040518083038186803b15801561092c57600080fd5b505afa158015610940573d6000803e3d6000fd5b505050506040513d601f19601f8201168201806040525061096491908101906129fb565b8152602001896001600160a01b0316633b1d21a26040518163ffffffff1660e01b815260040160206040518083038186803b1580156109a257600080fd5b505afa1580156109b6573d6000803e3d6000fd5b505050506040513d601f19601f820116820180604052506109da91908101906129fb565b81526020018515158152602001848152602001836001600160a01b03168152602001896001600160a01b031663313ce5676040518163ffffffff1660e01b815260040160206040518083038186803b158015610a3557600080fd5b505afa158015610a49573d6000803e3d6000fd5b505050506040513d601f19601f82011682018060405250610a6d9190810190612b3e565b60ff16815260200191909152979650505050505050565b610a8c6120ad565b6040516370a0823160e01b81526000906001600160a01b038616906370a0823190610abb908690600401613470565b60206040518083038186803b158015610ad357600080fd5b505afa158015610ae7573d6000803e3d6000fd5b505050506040513d601f19601f82011682018060405250610b0b91908101906129fb565b6040516374d7814960e11b81529091506001600160a01b0385169063e9af029290610b3a908690600401613470565b600060405180830381600087803b158015610b5457600080fd5b505af1158015610b68573d6000803e3d6000fd5b50506040516370a0823160e01b8152600092506001600160a01b03881691506370a0823190610b9b908790600401613470565b60206040518083038186803b158015610bb357600080fd5b505afa158015610bc7573d6000803e3d6000fd5b505050506040513d601f19601f82011682018060405250610beb91908101906129fb565b90506000856001600160a01b031663cc7ebdc4866040518263ffffffff1660e01b8152600401610c1b9190613470565b60206040518083038186803b158015610c3357600080fd5b505afa158015610c47573d6000803e3d6000fd5b505050506040513d601f19601f82011682018060405250610c6b91908101906129fb565b90506000610ca082846040518060400160405280600e81526020016d1cdd5b4818dbdb5c081d1bdd185b60921b815250611e69565b90506000610cd482866040518060400160405280600d81526020016c1cdd5888185b1b1bd8d85d1959609a1b815250611e99565b905060405180608001604052808681526020018a6001600160a01b031663b4b5ea578a6040518263ffffffff1660e01b8152600401610d139190613470565b60206040518083038186803b158015610d2b57600080fd5b505afa158015610d3f573d6000803e3d6000fd5b505050506040513d601f19601f82011682018060405250610d639190810190612b5c565b6001600160601b031681526020018a6001600160a01b031663587cde1e8a6040518263ffffffff1660e01b8152600401610d9d9190613470565b60206040518083038186803b158015610db557600080fd5b505afa158015610dc9573d6000803e3d6000fd5b505050506040513d601f19601f82011682018060405250610ded91908101906125ff565b6001600160a01b031681526020019190915298975050505050505050565b60408051828152602080840282010190915260609082908290828015610e4b57816020015b610e386120de565b815260200190600190039081610e305790505b50905060005b82811015610e9c57610e7d868683818110610e6857fe5b905060200201602061022b91908101906127e4565b828281518110610e8957fe5b6020908102919091010152600101610e51565b509150505b92915050565b610eaf6120f5565b6040805160608101918290526370a0823160e01b909152806001600160a01b0385166370a08231610ee38660648501613470565b60206040518083038186803b158015610efb57600080fd5b505afa158015610f0f573d6000803e3d6000fd5b505050506040513d601f19601f82011682018060405250610f3391908101906129fb565b8152602001846001600160a01b031663b4b5ea57856040518263ffffffff1660e01b8152600401610f649190613470565b60206040518083038186803b158015610f7c57600080fd5b505afa158015610f90573d6000803e3d6000fd5b505050506040513d601f19601f82011682018060405250610fb49190810190612b5c565b6001600160601b03168152602001846001600160a01b031663587cde1e856040518263ffffffff1660e01b8152600401610fee9190613470565b60206040518083038186803b15801561100657600080fd5b505afa15801561101a573d6000803e3d6000fd5b505050506040513d601f19601f8201168201806040525061103e91908101906125ff565b6001600160a01b031690529392505050565b6040805182815260208084028201019091526060908290829082801561109057816020015b61107d61202a565b8152602001906001900390816110755790505b50905060005b82811015610e9c576110c28686838181106110ad57fe5b90506020020160206100eb91908101906127e4565b8282815181106110ce57fe5b6020908102919091010152600101611096565b6060808383905060405190808252806020026020018201604052801561112157816020015b61110e61211f565b8152602001906001900390816111065790505b50905060005b8381101561122f57604051806040016040528086868481811061114657fe5b905060200201602061115b9190810190612b20565b63ffffffff168152602001886001600160a01b031663782d6fe18989898781811061118257fe5b90506020020160206111979190810190612b20565b6040518363ffffffff1660e01b81526004016111b49291906134a7565b60206040518083038186803b1580156111cc57600080fd5b505afa1580156111e0573d6000803e3d6000fd5b505050506040513d601f19601f820116820180604052506112049190810190612b5c565b6001600160601b031681525082828151811061121c57fe5b6020908102919091010152600101611127565b5095945050505050565b611241612139565b6000806000856001600160a01b0316635ec88c79866040518263ffffffff1660e01b81526004016112729190613470565b60606040518083038186803b15801561128a57600080fd5b505afa15801561129e573d6000803e3d6000fd5b505050506040513d601f19601f820116820180604052506112c29190810190612add565b925092509250826000146112d557600080fd5b604080516060810191829052632aff3bff60e21b909152806001600160a01b03881663abfceffc6113098960648501613470565b60006040518083038186803b15801561132157600080fd5b505afa158015611335573d6000803e3d6000fd5b505050506040513d6000823e601f3d908101601f1916820160405261135d9190810190612776565b81526020810193909352604090920152949350505050565b606080838390506040519080825280602002602001820160405280156113b557816020015b6113a261215a565b81526020019060019003908161139a5790505b50905060005b8381101561152857606080606080896001600160a01b031663328dd9828a8a888181106113e457fe5b905060200201356040518263ffffffff1660e01b8152600401611407919061359f565b60006040518083038186803b15801561141f57600080fd5b505afa158015611433573d6000803e3d6000fd5b505050506040513d6000823e601f3d908101601f1916820160405261145b9190810190612625565b9350935093509350604051806101a001604052806000815260200160006001600160a01b031681526020016000815260200185815260200184815260200183815260200182815260200160008152602001600081526020016000815260200160008152602001600015158152602001600015158152508686815181106114dd57fe5b60200260200101819052506115188686815181106114f757fe5b60200260200101518b8b8b8981811061150c57fe5b90506020020135611ec5565b5050600190920191506113bb9050565b50949350505050565b606060008251905060608160405190808252806020026020018201604052801561157557816020015b6115626121cf565b81526020019060019003908161155a5790505b50905060005b828110156102f55761158b6121f6565b876001600160a01b031663e23a9a528784815181106115a657fe5b6020026020010151896040518363ffffffff1660e01b81526004016115cc9291906135ad565b60606040518083038186803b1580156115e457600080fd5b505afa1580156115f8573d6000803e3d6000fd5b505050506040513d601f19601f8201168201806040525061161c91908101906129dd565b9050604051806080016040528087848151811061163557fe5b6020026020010151815260200182600001511515815260200182602001511515815260200182604001516001600160601b031681525083838151811061167757fe5b60209081029190910101525060010161157b565b611693611feb565b6040516370a0823160e01b81526000906001600160a01b038516906370a08231906116c290869060040161347e565b60206040518083038186803b1580156116da57600080fd5b505afa1580156116ee573d6000803e3d6000fd5b505050506040513d601f19601f8201168201806040525061171291908101906129fb565b90506000846001600160a01b03166317bfdfbc856040518263ffffffff1660e01b8152600401611742919061347e565b602060405180830381600087803b15801561175c57600080fd5b505af1158015611770573d6000803e3d6000fd5b505050506040513d601f19601f8201168201806040525061179491908101906129fb565b90506000856001600160a01b0316633af9e669866040518263ffffffff1660e01b81526004016117c4919061347e565b602060405180830381600087803b1580156117de57600080fd5b505af11580156117f2573d6000803e3d6000fd5b505050506040513d601f19601f8201168201806040525061181691908101906129fb565b9050600080611857886001600160a01b03166395d89b416040518163ffffffff1660e01b815260040160006040518083038186803b1580156104b657600080fd5b156118715750506001600160a01b038516803190316119ee565b60008890506000816001600160a01b0316636f307dc36040518163ffffffff1660e01b815260040160206040518083038186803b1580156118b157600080fd5b505afa1580156118c5573d6000803e3d6000fd5b505050506040513d601f19601f820116820180604052506118e991908101906125ff565b6040516370a0823160e01b81529091506001600160a01b038216906370a0823190611918908c9060040161347e565b60206040518083038186803b15801561193057600080fd5b505afa158015611944573d6000803e3d6000fd5b505050506040513d601f19601f8201168201806040525061196891908101906129fb565b604051636eb1769f60e11b81529094506001600160a01b0382169063dd62ed3e90611999908c908e9060040161348c565b60206040518083038186803b1580156119b157600080fd5b505afa1580156119c5573d6000803e3d6000fd5b505050506040513d601f19601f820116820180604052506119e991908101906129fb565b925050505b6040805160c0810182526001600160a01b039990991689526020890195909552938701929092526060860152608085015260a08401525090919050565b611a336120de565b6000826001600160a01b0316635fe3b5676040518163ffffffff1660e01b815260040160206040518083038186803b158015611a6e57600080fd5b505afa158015611a82573d6000803e3d6000fd5b505050506040513d601f19601f82011682018060405250611aa691908101906128dc565b90506000816001600160a01b0316637dc0d1d06040518163ffffffff1660e01b815260040160206040518083038186803b158015611ae357600080fd5b505afa158015611af7573d6000803e3d6000fd5b505050506040513d601f19601f82011682018060405250611b1b91908101906128dc565b90506040518060400160405280856001600160a01b03168152602001826001600160a01b031663fc57d4df876040518263ffffffff1660e01b8152600401611b639190613528565b60206040518083038186803b158015611b7b57600080fd5b505afa158015611b8f573d6000803e3d6000fd5b505050506040513d601f19601f82011682018060405250611bb391908101906129fb565b9052949350505050565b600080846001600160a01b03166370a08231846040518263ffffffff1660e01b8152600401611bec9190613470565b60206040518083038186803b158015611c0457600080fd5b505afa158015611c18573d6000803e3d6000fd5b505050506040513d601f19601f82011682018060405250611c3c91908101906129fb565b6040516374d7814960e11b81529092506001600160a01b0385169063e9af029290611c6b908690600401613470565b600060405180830381600087803b158015611c8557600080fd5b505af1158015611c99573d6000803e3d6000fd5b50506040516370a0823160e01b8152600092506001600160a01b03881691506370a0823190611ccc908790600401613470565b60206040518083038186803b158015611ce457600080fd5b505afa158015611cf8573d6000803e3d6000fd5b505050506040513d601f19601f82011682018060405250611d1c91908101906129fb565b90506000856001600160a01b031663cc7ebdc4866040518263ffffffff1660e01b8152600401611d4c9190613470565b60206040518083038186803b158015611d6457600080fd5b505afa158015611d78573d6000803e3d6000fd5b505050506040513d601f19601f82011682018060405250611d9c91908101906129fb565b90506000611dd182846040518060400160405280600e81526020016d1cdd5b4818dbdb5c081d1bdd185b60921b815250611e69565b9050611e0381866040518060400160405280600d81526020016c1cdd5888185b1b1bd8d85d1959609a1b815250611e99565b9350505050935093915050565b600081604051602001611e239190613464565b6040516020818303038152906040528051906020012083604051602001611e4a9190613464565b6040516020818303038152906040528051906020012014905092915050565b600083830182858210156115285760405162461bcd60e51b8152600401611e909190613536565b60405180910390fd5b60008184841115611ebd5760405162461bcd60e51b8152600401611e909190613536565b505050900390565b600080600080600080600080896001600160a01b031663013cf08b8a6040518263ffffffff1660e01b8152600401611efd919061359f565b6101206040518083038186803b158015611f1657600080fd5b505afa158015611f2a573d6000803e3d6000fd5b505050506040513d601f19601f82011682018060405250611f4e9190810190612a19565b9850985098509850985098509850985050888b6000018181525050878b602001906001600160a01b031690816001600160a01b031681525050868b6040018181525050858b60e0018181525050848b610100018181525050838b610120018181525050828b610140018181525050818b610160019015159081151581525050808b6101800190151590811515815250505050505050505050505050565b6040518060c0016040528060006001600160a01b0316815260200160008152602001600081526020016000815260200160008152602001600081525090565b604051806101c0016040528060006001600160a01b0316815260200160008152602001600081526020016000815260200160008152602001600081526020016000815260200160008152602001600081526020016000151581526020016000815260200160006001600160a01b0316815260200160008152602001600081525090565b6040518060800160405280600081526020016000815260200160006001600160a01b03168152602001600081525090565b604080518082019091526000808252602082015290565b6040518060600160405280600081526020016000815260200160006001600160a01b031681525090565b604051806040016040528060008152602001600081525090565b60405180606001604052806060815260200160008152602001600081525090565b604051806101a001604052806000815260200160006001600160a01b031681526020016000815260200160608152602001606081526020016060815260200160608152602001600081526020016000815260200160008152602001600081526020016000151581526020016000151581525090565b60408051608081018252600080825260208201819052918101829052606081019190915290565b604080516060810182526000808252602082018190529181019190915290565b8035610ea1816136ec565b8051610ea1816136ec565b600082601f83011261223d57600080fd5b815161225061224b826135fc565b6135d6565b9150818183526020840193506020810190508385602084028201111561227557600080fd5b60005b838110156122a1578161228b8882612221565b8452506020928301929190910190600101612278565b5050505092915050565b600082601f8301126122bc57600080fd5b81516122ca61224b826135fc565b81815260209384019390925082018360005b838110156122a157815186016122f28882612508565b84525060209283019291909101906001016122dc565b60008083601f84011261231a57600080fd5b5081356001600160401b0381111561233157600080fd5b60208301915083602082028301111561234957600080fd5b9250929050565b600082601f83011261236157600080fd5b815161236f61224b826135fc565b9150818183526020840193506020810190508385602084028201111561239457600080fd5b60005b838110156122a157816123aa8882612562565b8452506020928301929190910190600101612397565b600082601f8301126123d157600080fd5b81516123df61224b826135fc565b81815260209384019390925082018360005b838110156122a157815186016124078882612508565b84525060209283019291909101906001016123f1565b600082601f83011261242e57600080fd5b813561243c61224b826135fc565b9150818183526020840193506020810190508385602084028201111561246157600080fd5b60005b838110156122a1578161247788826125c8565b8452506020928301929190910190600101612464565b600082601f83011261249e57600080fd5b81516124ac61224b826135fc565b915081818352602084019350602081019050838560208402820111156124d157600080fd5b60005b838110156122a157816124e788826125d3565b84525060209283019291909101906001016124d4565b8051610ea181613703565b600082601f83011261251957600080fd5b815161252761224b8261361c565b9150808252602083016020830185838301111561254357600080fd5b61254e8382846136b6565b50505092915050565b8035610ea18161370c565b8051610ea18161370c565b60006060828403121561257f57600080fd5b61258960606135d6565b9050600061259784846124fd565b82525060206125a8848483016124fd565b60208301525060406125bc848285016125f4565b60408301525092915050565b8035610ea181613715565b8051610ea181613715565b8035610ea18161371e565b8051610ea181613727565b8051610ea181613730565b60006020828403121561261157600080fd5b600061261d8484612221565b949350505050565b6000806000806080858703121561263b57600080fd5b84516001600160401b0381111561265157600080fd5b61265d8782880161222c565b94505060208501516001600160401b0381111561267957600080fd5b6126858782880161248d565b93505060408501516001600160401b038111156126a157600080fd5b6126ad878288016123c0565b92505060608501516001600160401b038111156126c957600080fd5b6126d5878288016122ab565b91505092959194509250565b600080602083850312156126f457600080fd5b82356001600160401b0381111561270a57600080fd5b61271685828601612308565b92509250509250929050565b60008060006040848603121561273757600080fd5b83356001600160401b0381111561274d57600080fd5b61275986828701612308565b9350935050602061276c86828701612216565b9150509250925092565b60006020828403121561278857600080fd5b81516001600160401b0381111561279e57600080fd5b61261d84828501612350565b600080604083850312156127bd57600080fd5b60006127c985856124fd565b92505060206127da858286016125d3565b9150509250929050565b6000602082840312156127f657600080fd5b600061261d8484612557565b6000806040838503121561281557600080fd5b60006128218585612557565b92505060206127da85828601612216565b6000806000806060858703121561284857600080fd5b60006128548787612557565b945050602061286587828801612216565b93505060408501356001600160401b0381111561288157600080fd5b61288d87828801612308565b95989497509550505050565b6000806000606084860312156128ae57600080fd5b60006128ba8686612557565b93505060206128cb86828701612557565b925050604061276c86828701612216565b6000602082840312156128ee57600080fd5b600061261d8484612562565b60008060006060848603121561290f57600080fd5b600061291b8686612557565b935050602061292c86828701612216565b92505060408401356001600160401b0381111561294857600080fd5b61276c8682870161241d565b60008060006040848603121561296957600080fd5b60006129758686612557565b93505060208401356001600160401b0381111561299157600080fd5b61299d86828701612308565b92509250509250925092565b6000602082840312156129bb57600080fd5b81516001600160401b038111156129d157600080fd5b61261d84828501612508565b6000606082840312156129ef57600080fd5b600061261d848461256d565b600060208284031215612a0d57600080fd5b600061261d84846125d3565b60008060008060008060008060006101208a8c031215612a3857600080fd5b6000612a448c8c6125d3565b9950506020612a558c828d01612221565b9850506040612a668c828d016125d3565b9750506060612a778c828d016125d3565b9650506080612a888c828d016125d3565b95505060a0612a998c828d016125d3565b94505060c0612aaa8c828d016125d3565b93505060e0612abb8c828d016124fd565b925050610100612acd8c828d016124fd565b9150509295985092959850929598565b600080600060608486031215612af257600080fd5b6000612afe86866125d3565b9350506020612b0f868287016125d3565b925050604061276c868287016125d3565b600060208284031215612b3257600080fd5b600061261d84846125de565b600060208284031215612b5057600080fd5b600061261d84846125e9565b600060208284031215612b6e57600080fd5b600061261d84846125f4565b6000612b868383612c2a565b505060200190565b60006102fa8383612fe7565b6000612b86838361301f565b6000612bb2838361309f565b505060c00190565b6000612bc68383613115565b50506101c00190565b6000612bdb838361322a565b505060400190565b6000612bdb83836132cf565b60006102fa83836132e0565b6000612c0783836133ff565b505060800190565b6000612b868383613449565b612c24816136a0565b82525050565b612c248161365b565b6000612c3e82613649565b612c48818561364d565b9350612c5383613643565b8060005b83811015612c81578151612c6b8882612b7a565b9750612c7683613643565b925050600101612c57565b509495945050505050565b6000612c9782613649565b612ca1818561364d565b935083602082028501612cb385613643565b8060005b85811015612ced5784840389528151612cd08582612b8e565b9450612cdb83613643565b60209a909a0199925050600101612cb7565b5091979650505050505050565b6000612d0582613649565b612d0f818561364d565b9350612d1a83613643565b8060005b83811015612c81578151612d328882612b9a565b9750612d3d83613643565b925050600101612d1e565b6000612d5382613649565b612d5d818561364d565b935083602082028501612d6f85613643565b8060005b85811015612ced5784840389528151612d8c8582612b8e565b9450612d9783613643565b60209a909a0199925050600101612d73565b6000612db482613649565b612dbe818561364d565b9350612dc983613643565b8060005b83811015612c81578151612de18882612ba6565b9750612dec83613643565b925050600101612dcd565b6000612e0282613649565b612e0c818561364d565b9350612e1783613643565b8060005b83811015612c81578151612e2f8882612bba565b9750612e3a83613643565b925050600101612e1b565b6000612e5082613649565b612e5a818561364d565b9350612e6583613643565b8060005b83811015612c81578151612e7d8882612bcf565b9750612e8883613643565b925050600101612e69565b6000612e9e82613649565b612ea8818561364d565b9350612eb383613643565b8060005b83811015612c81578151612ecb8882612be3565b9750612ed683613643565b925050600101612eb7565b6000612eec82613649565b612ef6818561364d565b935083602082028501612f0885613643565b8060005b85811015612ced5784840389528151612f258582612bef565b9450612f3083613643565b60209a909a0199925050600101612f0c565b6000612f4d82613649565b612f57818561364d565b9350612f6283613643565b8060005b83811015612c81578151612f7a8882612bfb565b9750612f8583613643565b925050600101612f66565b6000612f9b82613649565b612fa5818561364d565b9350612fb083613643565b8060005b83811015612c81578151612fc88882612c0f565b9750612fd383613643565b925050600101612fb4565b612c2481613666565b6000612ff282613649565b612ffc818561364d565b935061300c8185602086016136b6565b613015816136e2565b9093019392505050565b612c248161366b565b600061303382613649565b61303d8185613656565b935061304d8185602086016136b6565b9290920192915050565b805160608084526000919084019061306f8282612cfa565b91505060208301516130846020860182613449565b5060408301516130976040860182613449565b509392505050565b805160c08301906130b08482612c2a565b5060208201516130c36020850182613449565b5060408201516130d66040850182613449565b5060608201516130e96060850182613449565b5060808201516130fc6080850182613449565b5060a082015161310f60a0850182613449565b50505050565b80516101c08301906131278482612c2a565b50602082015161313a6020850182613449565b50604082015161314d6040850182613449565b5060608201516131606060850182613449565b5060808201516131736080850182613449565b5060a082015161318660a0850182613449565b5060c082015161319960c0850182613449565b5060e08201516131ac60e0850182613449565b506101008201516131c1610100850182613449565b506101208201516131d6610120850182612fde565b506101408201516131eb610140850182613449565b50610160820151613200610160850182612c2a565b50610180820151613215610180850182613449565b506101a082015161310f6101a0850182613449565b8051604083019061323b8482612c2a565b50602082015161310f6020850182613449565b8051608083019061325f8482613449565b5060208201516132726020850182613449565b5060408201516132856040850182612c2a565b50606082015161310f6060850182613449565b805160608301906132a98482613449565b5060208201516132bc6020850182613449565b50604082015161310f6040850182612c2a565b8051604083019061323b8482613449565b80516000906101a08401906132f58582613449565b5060208301516133086020860182612c2a565b50604083015161331b6040860182613449565b50606083015184820360608601526133338282612c33565b9150506080830151848203608086015261334d8282612f90565b91505060a083015184820360a08601526133678282612d48565b91505060c083015184820360c08601526133818282612c8c565b91505060e083015161339660e0860182613449565b506101008301516133ab610100860182613449565b506101208301516133c0610120860182613449565b506101408301516133d5610140860182613449565b506101608301516133ea610160860182612fde565b50610180830151613097610180860182612fde565b805160808301906134108482613449565b5060208201516134236020850182612fde565b5060408201516134366040850182612fde565b50606082015161310f606085018261345b565b612c2481613682565b612c24816136ab565b612c2481613694565b60006102fa8284613028565b60208101610ea18284612c2a565b60208101610ea18284612c1b565b6040810161349a8285612c1b565b6102fa6020830184612c2a565b604081016134b58285612c2a565b6102fa6020830184613452565b602080825281016102fa8184612da9565b602080825281016102fa8184612df7565b602080825281016102fa8184612e45565b602080825281016102fa8184612e93565b602080825281016102fa8184612ee1565b602080825281016102fa8184612f42565b60208101610ea1828461301f565b602080825281016102fa8184612fe7565b602080825281016102fa8184613057565b60c08101610ea1828461309f565b6101c08101610ea18284613115565b60408101610ea1828461322a565b60808101610ea1828461324e565b60608101610ea18284613298565b60208101610ea18284613449565b6040810161349a8285613449565b604081016135c98285613449565b6102fa6020830184613449565b6040518181016001600160401b03811182821017156135f457600080fd5b604052919050565b60006001600160401b0382111561361257600080fd5b5060209081020190565b60006001600160401b0382111561363257600080fd5b506020601f91909101601f19160190565b60200190565b5190565b90815260200190565b919050565b6000610ea182613676565b151590565b6000610ea18261365b565b6001600160a01b031690565b90565b63ffffffff1690565b60ff1690565b6001600160601b031690565b6000610ea18261366b565b6000610ea182613685565b60005b838110156136d15781810151838201526020016136b9565b8381111561310f5750506000910152565b601f01601f191690565b6136f58161365b565b811461370057600080fd5b50565b6136f581613666565b6136f58161366b565b6136f581613682565b6136f581613685565b6136f58161368e565b6136f58161369456fea365627a7a72315820e4bd5e4244951896aaf523132b43d6aa9df35d3519882f4e8c0ab0731981b8806c6578706572696d656e74616cf564736f6c63430005100040",
  "source": "pragma solidity ^0.5.16;\npragma experimental ABIEncoderV2;\n\nimport \"../CErc20.sol\";\nimport \"../CToken.sol\";\nimport \"../PriceOracle.sol\";\nimport \"../EIP20Interface.sol\";\nimport \"../Governance/GovernorAlpha.sol\";\nimport \"../Governance/Comp.sol\";\n\ninterface ComptrollerLensInterface {\n    function markets(address) external view returns (bool, uint);\n    function oracle() external view returns (PriceOracle);\n    function getAccountLiquidity(address) external view returns (uint, uint, uint);\n    function getAssetsIn(address) external view returns (CToken[] memory);\n    function claimComp(address) external;\n    function compAccrued(address) external view returns (uint);\n}\n\ncontract CompoundLens {\n    struct CTokenMetadata {\n        address cToken;\n        uint exchangeRateCurrent;\n        uint supplyRatePerBlock;\n        uint borrowRatePerBlock;\n        uint reserveFactorMantissa;\n        uint totalBorrows;\n        uint totalReserves;\n        uint totalSupply;\n        uint totalCash;\n        bool isListed;\n        uint collateralFactorMantissa;\n        address underlyingAssetAddress;\n        uint cTokenDecimals;\n        uint underlyingDecimals;\n    }\n\n    function cTokenMetadata(CToken cToken) public returns (CTokenMetadata memory) {\n        uint exchangeRateCurrent = cToken.exchangeRateCurrent();\n        ComptrollerLensInterface comptroller = ComptrollerLensInterface(address(cToken.comptroller()));\n        (bool isListed, uint collateralFactorMantissa) = comptroller.markets(address(cToken));\n        address underlyingAssetAddress;\n        uint underlyingDecimals;\n\n        if (compareStrings(cToken.symbol(), \"uHT\")) {\n            underlyingAssetAddress = address(0);\n            underlyingDecimals = 18;\n        } else {\n            CErc20 cErc20 = CErc20(address(cToken));\n            underlyingAssetAddress = cErc20.underlying();\n            underlyingDecimals = EIP20Interface(cErc20.underlying()).decimals();\n        }\n\n        return CTokenMetadata({\n            cToken: address(cToken),\n            exchangeRateCurrent: exchangeRateCurrent,\n            supplyRatePerBlock: cToken.supplyRatePerBlock(),\n            borrowRatePerBlock: cToken.borrowRatePerBlock(),\n            reserveFactorMantissa: cToken.reserveFactorMantissa(),\n            totalBorrows: cToken.totalBorrows(),\n            totalReserves: cToken.totalReserves(),\n            totalSupply: cToken.totalSupply(),\n            totalCash: cToken.getCash(),\n            isListed: isListed,\n            collateralFactorMantissa: collateralFactorMantissa,\n            underlyingAssetAddress: underlyingAssetAddress,\n            cTokenDecimals: cToken.decimals(),\n            underlyingDecimals: underlyingDecimals\n        });\n    }\n\n    function cTokenMetadataAll(CToken[] calldata cTokens) external returns (CTokenMetadata[] memory) {\n        uint cTokenCount = cTokens.length;\n        CTokenMetadata[] memory res = new CTokenMetadata[](cTokenCount);\n        for (uint i = 0; i < cTokenCount; i++) {\n            res[i] = cTokenMetadata(cTokens[i]);\n        }\n        return res;\n    }\n\n    struct CTokenBalances {\n        address cToken;\n        uint balanceOf;\n        uint borrowBalanceCurrent;\n        uint balanceOfUnderlying;\n        uint tokenBalance;\n        uint tokenAllowance;\n    }\n\n    function cTokenBalances(CToken cToken, address payable account) public returns (CTokenBalances memory) {\n        uint balanceOf = cToken.balanceOf(account);\n        uint borrowBalanceCurrent = cToken.borrowBalanceCurrent(account);\n        uint balanceOfUnderlying = cToken.balanceOfUnderlying(account);\n        uint tokenBalance;\n        uint tokenAllowance;\n\n        if (compareStrings(cToken.symbol(), \"uHT\")) {\n            tokenBalance = account.balance;\n            tokenAllowance = account.balance;\n        } else {\n            CErc20 cErc20 = CErc20(address(cToken));\n            EIP20Interface underlying = EIP20Interface(cErc20.underlying());\n            tokenBalance = underlying.balanceOf(account);\n            tokenAllowance = underlying.allowance(account, address(cToken));\n        }\n\n        return CTokenBalances({\n            cToken: address(cToken),\n            balanceOf: balanceOf,\n            borrowBalanceCurrent: borrowBalanceCurrent,\n            balanceOfUnderlying: balanceOfUnderlying,\n            tokenBalance: tokenBalance,\n            tokenAllowance: tokenAllowance\n        });\n    }\n\n    function cTokenBalancesAll(CToken[] calldata cTokens, address payable account) external returns (CTokenBalances[] memory) {\n        uint cTokenCount = cTokens.length;\n        CTokenBalances[] memory res = new CTokenBalances[](cTokenCount);\n        for (uint i = 0; i < cTokenCount; i++) {\n            res[i] = cTokenBalances(cTokens[i], account);\n        }\n        return res;\n    }\n\n    struct CTokenUnderlyingPrice {\n        address cToken;\n        uint underlyingPrice;\n    }\n\n    function cTokenUnderlyingPrice(CToken cToken) public view returns (CTokenUnderlyingPrice memory) {\n        ComptrollerLensInterface comptroller = ComptrollerLensInterface(address(cToken.comptroller()));\n        PriceOracle priceOracle = comptroller.oracle();\n\n        return CTokenUnderlyingPrice({\n            cToken: address(cToken),\n            underlyingPrice: priceOracle.getUnderlyingPrice(cToken)\n        });\n    }\n\n    function cTokenUnderlyingPriceAll(CToken[] calldata cTokens) external view returns (CTokenUnderlyingPrice[] memory) {\n        uint cTokenCount = cTokens.length;\n        CTokenUnderlyingPrice[] memory res = new CTokenUnderlyingPrice[](cTokenCount);\n        for (uint i = 0; i < cTokenCount; i++) {\n            res[i] = cTokenUnderlyingPrice(cTokens[i]);\n        }\n        return res;\n    }\n\n    struct AccountLimits {\n        CToken[] markets;\n        uint liquidity;\n        uint shortfall;\n    }\n\n    function getAccountLimits(ComptrollerLensInterface comptroller, address account) public view returns (AccountLimits memory) {\n        (uint errorCode, uint liquidity, uint shortfall) = comptroller.getAccountLiquidity(account);\n        require(errorCode == 0);\n\n        return AccountLimits({\n            markets: comptroller.getAssetsIn(account),\n            liquidity: liquidity,\n            shortfall: shortfall\n        });\n    }\n\n    struct GovReceipt {\n        uint proposalId;\n        bool hasVoted;\n        bool support;\n        uint96 votes;\n    }\n\n    function getGovReceipts(GovernorAlpha governor, address voter, uint[] memory proposalIds) public view returns (GovReceipt[] memory) {\n        uint proposalCount = proposalIds.length;\n        GovReceipt[] memory res = new GovReceipt[](proposalCount);\n        for (uint i = 0; i < proposalCount; i++) {\n            GovernorAlpha.Receipt memory receipt = governor.getReceipt(proposalIds[i], voter);\n            res[i] = GovReceipt({\n                proposalId: proposalIds[i],\n                hasVoted: receipt.hasVoted,\n                support: receipt.support,\n                votes: receipt.votes\n            });\n        }\n        return res;\n    }\n\n    struct GovProposal {\n        uint proposalId;\n        address proposer;\n        uint eta;\n        address[] targets;\n        uint[] values;\n        string[] signatures;\n        bytes[] calldatas;\n        uint startBlock;\n        uint endBlock;\n        uint forVotes;\n        uint againstVotes;\n        bool canceled;\n        bool executed;\n    }\n\n    function setProposal(GovProposal memory res, GovernorAlpha governor, uint proposalId) internal view {\n        (\n            ,\n            address proposer,\n            uint eta,\n            uint startBlock,\n            uint endBlock,\n            uint forVotes,\n            uint againstVotes,\n            bool canceled,\n            bool executed\n        ) = governor.proposals(proposalId);\n        res.proposalId = proposalId;\n        res.proposer = proposer;\n        res.eta = eta;\n        res.startBlock = startBlock;\n        res.endBlock = endBlock;\n        res.forVotes = forVotes;\n        res.againstVotes = againstVotes;\n        res.canceled = canceled;\n        res.executed = executed;\n    }\n\n    function getGovProposals(GovernorAlpha governor, uint[] calldata proposalIds) external view returns (GovProposal[] memory) {\n        GovProposal[] memory res = new GovProposal[](proposalIds.length);\n        for (uint i = 0; i < proposalIds.length; i++) {\n            (\n                address[] memory targets,\n                uint[] memory values,\n                string[] memory signatures,\n                bytes[] memory calldatas\n            ) = governor.getActions(proposalIds[i]);\n            res[i] = GovProposal({\n                proposalId: 0,\n                proposer: address(0),\n                eta: 0,\n                targets: targets,\n                values: values,\n                signatures: signatures,\n                calldatas: calldatas,\n                startBlock: 0,\n                endBlock: 0,\n                forVotes: 0,\n                againstVotes: 0,\n                canceled: false,\n                executed: false\n            });\n            setProposal(res[i], governor, proposalIds[i]);\n        }\n        return res;\n    }\n\n    struct CompBalanceMetadata {\n        uint balance;\n        uint votes;\n        address delegate;\n    }\n\n    function getCompBalanceMetadata(Comp comp, address account) external view returns (CompBalanceMetadata memory) {\n        return CompBalanceMetadata({\n            balance: comp.balanceOf(account),\n            votes: uint256(comp.getCurrentVotes(account)),\n            delegate: comp.delegates(account)\n        });\n    }\n\n    struct CompBalanceMetadataExt {\n        uint balance;\n        uint votes;\n        address delegate;\n        uint allocated;\n    }\n\n    function getCompBalanceMetadataExt(Comp comp, ComptrollerLensInterface comptroller, address account) external returns (CompBalanceMetadataExt memory) {\n        uint balance = comp.balanceOf(account);\n        comptroller.claimComp(account);\n        uint newBalance = comp.balanceOf(account);\n        uint accrued = comptroller.compAccrued(account);\n        uint total = add(accrued, newBalance, \"sum comp total\");\n        uint allocated = sub(total, balance, \"sub allocated\");\n\n        return CompBalanceMetadataExt({\n            balance: balance,\n            votes: uint256(comp.getCurrentVotes(account)),\n            delegate: comp.delegates(account),\n            allocated: allocated\n        });\n    }\n\n    function getCompBalanceWithAccrued(Comp comp, ComptrollerLensInterface comptroller, address account) external returns (uint balance, uint allocated) {\n        balance = comp.balanceOf(account);\n        comptroller.claimComp(account);\n        uint newBalance = comp.balanceOf(account);\n        uint accrued = comptroller.compAccrued(account);\n        uint total = add(accrued, newBalance, \"sum comp total\");\n        allocated = sub(total, balance, \"sub allocated\");\n    }\n\n    struct CompVotes {\n        uint blockNumber;\n        uint votes;\n    }\n\n    function getCompVotes(Comp comp, address account, uint32[] calldata blockNumbers) external view returns (CompVotes[] memory) {\n        CompVotes[] memory res = new CompVotes[](blockNumbers.length);\n        for (uint i = 0; i < blockNumbers.length; i++) {\n            res[i] = CompVotes({\n                blockNumber: uint256(blockNumbers[i]),\n                votes: uint256(comp.getPriorVotes(account, blockNumbers[i]))\n            });\n        }\n        return res;\n    }\n\n    function compareStrings(string memory a, string memory b) internal pure returns (bool) {\n        return (keccak256(abi.encodePacked((a))) == keccak256(abi.encodePacked((b))));\n    }\n\n    function add(uint a, uint b, string memory errorMessage) internal pure returns (uint) {\n        uint c = a + b;\n        require(c >= a, errorMessage);\n        return c;\n    }\n\n    function sub(uint a, uint b, string memory errorMessage) internal pure returns (uint) {\n        require(b <= a, errorMessage);\n        uint c = a - b;\n        return c;\n    }\n}\n",
  "sourcePath": "/Users/xingchen/github/Quicksilver/contracts/compound/Lens/CompoundLens.sol",
  "compiler": {
    "name": "solc",
    "version": "0.5.16+commit.9c3226ce.Emscripten.clang"
  },
  "schemaVersion": "3.3.4",
  "updatedAt": "2021-05-26T14:36:04.553Z",
  "networkType": "ethereum",
  "devdoc": {
    "methods": {}
  },
  "userdoc": {
    "methods": {}
  }
}