{
  "contractName": "QsConfig",
  "abi": [
    {
      "inputs": [
        {
          "internalType": "contract QsConfig",
          "name": "previousQsConfig",
          "type": "address"
        }
      ],
      "payable": false,
      "stateMutability": "nonpayable",
      "type": "constructor"
    },
    {
      "anonymous": false,
      "inputs": [
        {
          "indexed": false,
          "internalType": "address",
          "name": "user",
          "type": "address"
        },
        {
          "indexed": false,
          "internalType": "bool",
          "name": "enabled",
          "type": "bool"
        }
      ],
      "name": "BlacklistChange",
      "type": "event"
    },
    {
      "anonymous": false,
      "inputs": [
        {
          "indexed": false,
          "internalType": "uint256",
          "name": "oldCompRatio",
          "type": "uint256"
        },
        {
          "indexed": false,
          "internalType": "uint256",
          "name": "newCompRatio",
          "type": "uint256"
        }
      ],
      "name": "NewCompRatio",
      "type": "event"
    },
    {
      "anonymous": false,
      "inputs": [
        {
          "indexed": false,
          "internalType": "address",
          "name": "oldCompToken",
          "type": "address"
        },
        {
          "indexed": false,
          "internalType": "address",
          "name": "newCompToken",
          "type": "address"
        }
      ],
      "name": "NewCompToken",
      "type": "event"
    },
    {
      "anonymous": false,
      "inputs": [
        {
          "indexed": false,
          "internalType": "address",
          "name": "oldSafetyVault",
          "type": "address"
        },
        {
          "indexed": false,
          "internalType": "address",
          "name": "newSafetyVault",
          "type": "address"
        }
      ],
      "name": "NewSafetyVault",
      "type": "event"
    },
    {
      "anonymous": false,
      "inputs": [
        {
          "indexed": false,
          "internalType": "uint256",
          "name": "oldSafetyVaultRatio",
          "type": "uint256"
        },
        {
          "indexed": false,
          "internalType": "uint256",
          "name": "newSafetyVault",
          "type": "uint256"
        }
      ],
      "name": "NewSafetyVaultRatio",
      "type": "event"
    },
    {
      "anonymous": false,
      "inputs": [
        {
          "indexed": true,
          "internalType": "address",
          "name": "previousOwner",
          "type": "address"
        },
        {
          "indexed": true,
          "internalType": "address",
          "name": "newOwner",
          "type": "address"
        }
      ],
      "name": "OwnershipTransferred",
      "type": "event"
    },
    {
      "anonymous": false,
      "inputs": [
        {
          "indexed": false,
          "internalType": "address",
          "name": "user",
          "type": "address"
        },
        {
          "indexed": false,
          "internalType": "bool",
          "name": "enabled",
          "type": "bool"
        }
      ],
      "name": "WhitelistChange",
      "type": "event"
    },
    {
      "constant": true,
      "inputs": [],
      "name": "_owner",
      "outputs": [
        {
          "internalType": "address",
          "name": "",
          "type": "address"
        }
      ],
      "payable": false,
      "stateMutability": "view",
      "type": "function"
    },
    {
      "constant": true,
      "inputs": [
        {
          "internalType": "address",
          "name": "",
          "type": "address"
        }
      ],
      "name": "blacklist",
      "outputs": [
        {
          "internalType": "bool",
          "name": "",
          "type": "bool"
        }
      ],
      "payable": false,
      "stateMutability": "view",
      "type": "function"
    },
    {
      "constant": true,
      "inputs": [],
      "name": "compRatio",
      "outputs": [
        {
          "internalType": "uint256",
          "name": "",
          "type": "uint256"
        }
      ],
      "payable": false,
      "stateMutability": "view",
      "type": "function"
    },
    {
      "constant": true,
      "inputs": [],
      "name": "compSpeedGuardianPaused",
      "outputs": [
        {
          "internalType": "bool",
          "name": "",
          "type": "bool"
        }
      ],
      "payable": false,
      "stateMutability": "view",
      "type": "function"
    },
    {
      "constant": true,
      "inputs": [],
      "name": "compToken",
      "outputs": [
        {
          "internalType": "address",
          "name": "",
          "type": "address"
        }
      ],
      "payable": false,
      "stateMutability": "view",
      "type": "function"
    },
    {
      "constant": true,
      "inputs": [],
      "name": "owner",
      "outputs": [
        {
          "internalType": "address",
          "name": "",
          "type": "address"
        }
      ],
      "payable": false,
      "stateMutability": "view",
      "type": "function"
    },
    {
      "constant": false,
      "inputs": [],
      "name": "renounceOwnership",
      "outputs": [],
      "payable": false,
      "stateMutability": "nonpayable",
      "type": "function"
    },
    {
      "constant": true,
      "inputs": [],
      "name": "safetyVault",
      "outputs": [
        {
          "internalType": "address",
          "name": "",
          "type": "address"
        }
      ],
      "payable": false,
      "stateMutability": "view",
      "type": "function"
    },
    {
      "constant": true,
      "inputs": [],
      "name": "safetyVaultRatio",
      "outputs": [
        {
          "internalType": "uint256",
          "name": "",
          "type": "uint256"
        }
      ],
      "payable": false,
      "stateMutability": "view",
      "type": "function"
    },
    {
      "constant": false,
      "inputs": [
        {
          "internalType": "address",
          "name": "newOwner",
          "type": "address"
        }
      ],
      "name": "transferOwnership",
      "outputs": [],
      "payable": false,
      "stateMutability": "nonpayable",
      "type": "function"
    },
    {
      "constant": true,
      "inputs": [
        {
          "internalType": "address",
          "name": "",
          "type": "address"
        }
      ],
      "name": "whitelist",
      "outputs": [
        {
          "internalType": "bool",
          "name": "",
          "type": "bool"
        }
      ],
      "payable": false,
      "stateMutability": "view",
      "type": "function"
    },
    {
      "constant": false,
      "inputs": [
        {
          "internalType": "address",
          "name": "_compToken",
          "type": "address"
        }
      ],
      "name": "_setCompToken",
      "outputs": [],
      "payable": false,
      "stateMutability": "nonpayable",
      "type": "function"
    },
    {
      "constant": false,
      "inputs": [
        {
          "internalType": "address",
          "name": "_safetyVault",
          "type": "address"
        }
      ],
      "name": "_setSafetyVault",
      "outputs": [],
      "payable": false,
      "stateMutability": "nonpayable",
      "type": "function"
    },
    {
      "constant": false,
      "inputs": [
        {
          "internalType": "uint256",
          "name": "_safetyVaultRatio",
          "type": "uint256"
        }
      ],
      "name": "_setSafetyVaultRatio",
      "outputs": [],
      "payable": false,
      "stateMutability": "nonpayable",
      "type": "function"
    },
    {
      "constant": false,
      "inputs": [
        {
          "internalType": "bool",
          "name": "state",
          "type": "bool"
        }
      ],
      "name": "_setCompSpeedGuardianPaused",
      "outputs": [
        {
          "internalType": "bool",
          "name": "",
          "type": "bool"
        }
      ],
      "payable": false,
      "stateMutability": "nonpayable",
      "type": "function"
    },
    {
      "constant": true,
      "inputs": [
        {
          "internalType": "uint256",
          "name": "_seizeTokenAmount",
          "type": "uint256"
        },
        {
          "internalType": "uint256",
          "name": "liquidationIncentiveMantissa",
          "type": "uint256"
        }
      ],
      "name": "calculateSeizeTokenAllocation",
      "outputs": [
        {
          "internalType": "uint256",
          "name": "liquidatorAmount",
          "type": "uint256"
        },
        {
          "internalType": "uint256",
          "name": "safetyVaultAmount",
          "type": "uint256"
        }
      ],
      "payable": false,
      "stateMutability": "view",
      "type": "function"
    },
    {
      "constant": true,
      "inputs": [
        {
          "internalType": "address",
          "name": "user",
          "type": "address"
        },
        {
          "internalType": "uint256",
          "name": "userAccrued",
          "type": "uint256"
        }
      ],
      "name": "getCompAllocation",
      "outputs": [
        {
          "internalType": "uint256",
          "name": "userAmount",
          "type": "uint256"
        },
        {
          "internalType": "uint256",
          "name": "governanceAmount",
          "type": "uint256"
        }
      ],
      "payable": false,
      "stateMutability": "view",
      "type": "function"
    },
    {
      "constant": false,
      "inputs": [
        {
          "internalType": "uint256",
          "name": "_compRatio",
          "type": "uint256"
        }
      ],
      "name": "_setCompRatio",
      "outputs": [],
      "payable": false,
      "stateMutability": "nonpayable",
      "type": "function"
    },
    {
      "constant": true,
      "inputs": [
        {
          "internalType": "address",
          "name": "user",
          "type": "address"
        }
      ],
      "name": "isBlocked",
      "outputs": [
        {
          "internalType": "bool",
          "name": "",
          "type": "bool"
        }
      ],
      "payable": false,
      "stateMutability": "view",
      "type": "function"
    },
    {
      "constant": false,
      "inputs": [
        {
          "internalType": "address",
          "name": "_member",
          "type": "address"
        }
      ],
      "name": "_addToWhitelist",
      "outputs": [],
      "payable": false,
      "stateMutability": "nonpayable",
      "type": "function"
    },
    {
      "constant": false,
      "inputs": [
        {
          "internalType": "address",
          "name": "_member",
          "type": "address"
        }
      ],
      "name": "_removeFromWhitelist",
      "outputs": [],
      "payable": false,
      "stateMutability": "nonpayable",
      "type": "function"
    },
    {
      "constant": false,
      "inputs": [
        {
          "internalType": "address",
          "name": "_member",
          "type": "address"
        }
      ],
      "name": "_addToBlacklist",
      "outputs": [],
      "payable": false,
      "stateMutability": "nonpayable",
      "type": "function"
    },
    {
      "constant": false,
      "inputs": [
        {
          "internalType": "address",
          "name": "_member",
          "type": "address"
        }
      ],
      "name": "_removeFromBlacklist",
      "outputs": [],
      "payable": false,
      "stateMutability": "nonpayable",
      "type": "function"
    }
  ],
  "bytecode": "0x60806040526000805460ff60a01b1916600160a01b1790556706f05b59d3b2000060045534801561002f57600080fd5b506040516113853803806113858339818101604052602081101561005257600080fd5b5051600080546001600160a01b0319163390811782556040519091907f8be0079c531659141344cd1fd0a4f28419497f9722a3daafe3b4186f6b6457e0908290a36001600160a01b0381166100a65761021c565b806001600160a01b0316636605dfa76040518163ffffffff1660e01b815260040160206040518083038186803b1580156100df57600080fd5b505afa1580156100f3573d6000803e3d6000fd5b505050506040513d602081101561010957600080fd5b5051600180546001600160a01b0319166001600160a01b03928316179055604080516398aeca8f60e01b81529051918316916398aeca8f91600480820192602092909190829003018186803b15801561016157600080fd5b505afa158015610175573d6000803e3d6000fd5b505050506040513d602081101561018b57600080fd5b50516002556040805163ee9e819960e01b815290516001600160a01b0383169163ee9e8199916004808301926020929190829003018186803b1580156101d057600080fd5b505afa1580156101e4573d6000803e3d6000fd5b505050506040513d60208110156101fa57600080fd5b5051600380546001600160a01b0319166001600160a01b039092169190911790555b506111598061022c6000396000f3fe608060405234801561001057600080fd5b506004361061011d5760003560e01c80630cab477a1461012257806349de438d1461015e5780634bc51e761461017857806355e8110f146101945780635cf4dd76146101b35780636605dfa7146101d257806366e26aea146101f6578063715018a61461021c578063719df4fc146102245780638da5cb5b1461024a57806392b8de391461025257806398aeca8f1461027e5780639a83b63f146102865780639b19251a146102ac578063a56b60ee146102d2578063b2bdfa7b146102f8578063b9507f5814610300578063cad4ae371461031d578063ee9e819914610343578063f2fde38b1461034b578063f9f92be414610371578063fa51805414610397578063fbac3951146103bd575b600080fd5b6101456004803603604081101561013857600080fd5b50803590602001356103e3565b6040805192835260208301919091528051918290030190f35b610166610436565b60408051918252519081900360200190f35b61018061043c565b604080519115158252519081900360200190f35b610180600480360360208110156101aa57600080fd5b5035151561044c565b6101d0600480360360208110156101c957600080fd5b50356104b5565b005b6101da61058f565b604080516001600160a01b039092168252519081900360200190f35b6101d06004803603602081101561020c57600080fd5b50356001600160a01b031661059e565b6101d0610692565b6101d06004803603602081101561023a57600080fd5b50356001600160a01b0316610729565b6101da6107d8565b6101456004803603604081101561026857600080fd5b506001600160a01b0381351690602001356107e7565b610166610863565b6101d06004803603602081101561029c57600080fd5b50356001600160a01b0316610869565b610180600480360360208110156102c257600080fd5b50356001600160a01b0316610918565b6101d0600480360360208110156102e857600080fd5b50356001600160a01b031661092d565b6101da610a21565b6101d06004803603602081101561031657600080fd5b5035610a30565b6101d06004803603602081101561033357600080fd5b50356001600160a01b0316610ac4565b6101da610bbc565b6101d06004803603602081101561036157600080fd5b50356001600160a01b0316610bcb565b6101806004803603602081101561038757600080fd5b50356001600160a01b0316610cb8565b6101d0600480360360208110156103ad57600080fd5b50356001600160a01b0316610ccd565b610180600480360360208110156103d357600080fd5b50356001600160a01b0316610dc5565b6000806103ee611089565b5060408051602081019091526002548152610407611089565b6104118287610de3565b91505061041e8186610e4b565b51925061042b8684610e75565b935050509250929050565b60045481565b600054600160a01b900460ff1681565b600080546001600160a01b0316331461049a576040805162461bcd60e51b815260206004820181905260248201526000805160206110e5833981519152604482015290519081900360640190fd5b506000805460ff60a01b1916600160a01b8315150217905590565b6000546001600160a01b03163314610502576040805162461bcd60e51b815260206004820181905260248201526000805160206110e5833981519152604482015290519081900360640190fd5b670de0b6b3a764000081106105485760405162461bcd60e51b81526004018080602001828103825260228152602001806110c36022913960400191505060405180910390fd5b6004805490829055604080518281526020810184905281517f41b9e5b4e4af46da37df7c4d6f0ed2276cff9b099bc8d60f1361e5480b0ef00d929181900390910190a15050565b6001546001600160a01b031681565b6000546001600160a01b031633146105eb576040805162461bcd60e51b815260206004820181905260248201526000805160206110e5833981519152604482015290519081900360640190fd5b6001600160a01b038116610634576040805162461bcd60e51b815260206004820152601b6024820152600080516020611105833981519152604482015290519081900360640190fd5b6001600160a01b0381166000818152600560209081526040808320805460ff1916905580519384529083019190915280517f3f50d04114467f3ca25c50f1540e2864f8a852c0380bbbbb603ebfda10b5baf29281900390910190a150565b6000546001600160a01b031633146106df576040805162461bcd60e51b815260206004820181905260248201526000805160206110e5833981519152604482015290519081900360640190fd5b600080546040516001600160a01b03909116907f8be0079c531659141344cd1fd0a4f28419497f9722a3daafe3b4186f6b6457e0908390a3600080546001600160a01b0319169055565b6000546001600160a01b03163314610776576040805162461bcd60e51b815260206004820181905260248201526000805160206110e5833981519152604482015290519081900360640190fd5b600180546001600160a01b038381166001600160a01b0319831617928390556040805192821680845293909116602083015280517f80061c7335a0f9bdec054a1c794deb6a05a0ed8533a601664cf7db64a3ed296a9281900390910190a15050565b6000546001600160a01b031690565b6000806107f384610eb6565b158061081757506001600160a01b03841660009081526005602052604090205460ff165b156108275750819050600061085c565b61082f611089565b506040805160208101909152600454815261084a8185610ebc565b935061085890508484610e75565b9150505b9250929050565b60025481565b6000546001600160a01b031633146108b6576040805162461bcd60e51b815260206004820181905260248201526000805160206110e5833981519152604482015290519081900360640190fd5b600380546001600160a01b038381166001600160a01b0319831617928390556040805192821680845293909116602083015280517f74a5eddfef1d3fc580dee25f39692077d7f84f55a357b9d19bb469867dd81fdf9281900390910190a15050565b60056020526000908152604090205460ff1681565b6000546001600160a01b0316331461097a576040805162461bcd60e51b815260206004820181905260248201526000805160206110e5833981519152604482015290519081900360640190fd5b6001600160a01b0381166109c3576040805162461bcd60e51b815260206004820152601b6024820152600080516020611105833981519152604482015290519081900360640190fd5b6001600160a01b0381166000818152600660209081526040808320805460ff1916905580519384529083019190915280517f739f0e2acc6e65f7a52f8eabe2ca426ca0fb5158e8232d7bcd21bebd59b4ea529281900390910190a150565b6000546001600160a01b031681565b6000546001600160a01b03163314610a7d576040805162461bcd60e51b815260206004820181905260248201526000805160206110e5833981519152604482015290519081900360640190fd5b6002805490829055604080518281526020810184905281517f550d136d58901af374b8c16e4b5ca98acfc06d85a4a095df1cf919aef02c355f929181900390910190a15050565b6000546001600160a01b03163314610b11576040805162461bcd60e51b815260206004820181905260248201526000805160206110e5833981519152604482015290519081900360640190fd5b6001600160a01b038116610b5a576040805162461bcd60e51b815260206004820152601b6024820152600080516020611105833981519152604482015290519081900360640190fd5b6001600160a01b038116600081815260066020908152604091829020805460ff1916600190811790915582519384529083015280517f739f0e2acc6e65f7a52f8eabe2ca426ca0fb5158e8232d7bcd21bebd59b4ea529281900390910190a150565b6003546001600160a01b031681565b6000546001600160a01b03163314610c18576040805162461bcd60e51b815260206004820181905260248201526000805160206110e5833981519152604482015290519081900360640190fd5b6001600160a01b038116610c5d5760405162461bcd60e51b815260040180806020018281038252602681526020018061109d6026913960400191505060405180910390fd5b600080546040516001600160a01b03808516939216917f8be0079c531659141344cd1fd0a4f28419497f9722a3daafe3b4186f6b6457e091a3600080546001600160a01b0319166001600160a01b0392909216919091179055565b60066020526000908152604090205460ff1681565b6000546001600160a01b03163314610d1a576040805162461bcd60e51b815260206004820181905260248201526000805160206110e5833981519152604482015290519081900360640190fd5b6001600160a01b038116610d63576040805162461bcd60e51b815260206004820152601b6024820152600080516020611105833981519152604482015290519081900360640190fd5b6001600160a01b038116600081815260056020908152604091829020805460ff1916600190811790915582519384529083015280517f3f50d04114467f3ca25c50f1540e2864f8a852c0380bbbbb603ebfda10b5baf29281900390910190a150565b6001600160a01b031660009081526006602052604090205460ff1690565b6000610ded611089565b600080610dfe866000015186610f0f565b90925090506000826003811115610e1157fe5b14610e305750604080516020810190915260008152909250905061085c565b60408051602081019091529081526000969095509350505050565b610e53611089565b6040518060200160405280610e6c856000015185610f4e565b90529392505050565b6000610eaf8383604051806040016040528060158152602001747375627472616374696f6e20756e646572666c6f7760581b815250610f81565b9392505050565b3b151590565b6000806000610ec9611089565b610ed38686610de3565b90925090506000826003811115610ee657fe5b14610ef7575091506000905061085c565b6000610f0282611018565b9350935050509250929050565b60008083610f225750600090508061085c565b83830283858281610f2f57fe5b0414610f435750600291506000905061085c565b60009250905061085c565b6000610eaf83836040518060400160405280600e81526020016d646976696465206279207a65726f60901b815250611027565b600081848411156110105760405162461bcd60e51b81526004018080602001828103825283818151815260200191508051906020019080838360005b83811015610fd5578181015183820152602001610fbd565b50505050905090810190601f1680156110025780820380516001836020036101000a031916815260200191505b509250505060405180910390fd5b505050900390565b51670de0b6b3a7640000900490565b600081836110765760405162461bcd60e51b8152602060048201818152835160248401528351909283926044909101919085019080838360008315610fd5578181015183820152602001610fbd565b5082848161108057fe5b04949350505050565b604051806020016040528060008152509056fe4f776e61626c653a206e6577206f776e657220697320746865207a65726f2061646472657373636f6d70526174696f2073686f756c64206265206c657373207468656e20313030254f776e61626c653a2063616c6c6572206973206e6f7420746865206f776e65725a65726f2061646472657373206973206e6f7420616c6c6f7765640000000000a265627a7a72315820eecc698ac8472330f1eec5ffdab8da4b60480431441624185da20fe3b408639264736f6c63430005100032",
  "source": "pragma solidity ^0.5.16;\n\nimport \"./compound/Unitroller.sol\";\nimport \"./compound/Exponential.sol\";\nimport \"./Ownable.sol\";\n\ncontract QsConfig is Ownable, Exponential {\n    bool public compSpeedGuardianPaused = true;\n    address public compToken;\n    uint public safetyVaultRatio;\n    address public safetyVault;\n\n    uint public compRatio = 0.5e18;\n    mapping(address => bool) public whitelist;\n    mapping(address => bool) public blacklist;\n\n    event NewCompToken(address oldCompToken, address newCompToken);\n    event NewSafetyVault(address oldSafetyVault, address newSafetyVault);\n    event NewSafetyVaultRatio(uint oldSafetyVaultRatio, uint newSafetyVault);\n\n    event NewCompRatio(uint oldCompRatio, uint newCompRatio);\n    event WhitelistChange(address user, bool enabled);\n    event BlacklistChange(address user, bool enabled);\n\n    constructor(QsConfig previousQsConfig) public {\n        if (address(previousQsConfig) == address(0x0)) return;\n\n        compToken = previousQsConfig.compToken();\n        safetyVaultRatio = previousQsConfig.safetyVaultRatio();\n        safetyVault = previousQsConfig.safetyVault();\n    }\n\n    function _setCompToken(address _compToken) public onlyOwner {\n        address oldCompToken = compToken;\n        compToken = _compToken;\n        emit NewCompToken(oldCompToken, compToken);\n    }\n\n    function _setSafetyVault(address _safetyVault) public onlyOwner {\n        address oldSafetyVault = safetyVault;\n        safetyVault = _safetyVault;\n        emit NewSafetyVault(oldSafetyVault, safetyVault);\n    }\n\n    function _setSafetyVaultRatio(uint _safetyVaultRatio) public onlyOwner {\n        uint oldSafetyVaultRatio = safetyVaultRatio;\n        safetyVaultRatio = _safetyVaultRatio;\n        emit NewSafetyVaultRatio(oldSafetyVaultRatio, safetyVaultRatio);\n    }\n    \n    function _setCompSpeedGuardianPaused(bool state) public onlyOwner returns (bool) {\n        compSpeedGuardianPaused = state;\n        return state;\n    }\n    \n    function calculateSeizeTokenAllocation(uint _seizeTokenAmount, uint liquidationIncentiveMantissa) public view returns(uint liquidatorAmount, uint safetyVaultAmount) {\n        Exp memory vaultRatio = Exp({mantissa:safetyVaultRatio});\n        (,Exp memory tmp) = mulScalar(vaultRatio, _seizeTokenAmount);\n        safetyVaultAmount = div_(tmp, liquidationIncentiveMantissa).mantissa;\n        liquidatorAmount = sub_(_seizeTokenAmount, safetyVaultAmount);\n    }\n\n    function getCompAllocation(address user, uint userAccrued) public view returns(uint userAmount, uint governanceAmount) {\n        if (!isContract(user) || whitelist[user]) {\n            return (userAccrued, 0);\n        }\n\n        Exp memory compRatioExp = Exp({mantissa:compRatio});\n        (, userAmount) = mulScalarTruncate(compRatioExp, userAccrued);\n        governanceAmount = sub_(userAccrued, userAmount);\n    }\n\n    function _setCompRatio(uint _compRatio) public onlyOwner {\n        require(_compRatio < 1e18, \"compRatio should be less then 100%\");\n        uint oldCompRatio = compRatio;\n        compRatio = _compRatio;\n\n        emit NewCompRatio(oldCompRatio, compRatio);\n    }\n\n    function isBlocked(address user) public view returns (bool) {\n        return blacklist[user];\n    }\n\n    function _addToWhitelist(address _member) public onlyOwner {\n        require(_member != address(0x0), \"Zero address is not allowed\");\n        whitelist[_member] = true;\n\n        emit WhitelistChange(_member, true);\n    }\n\n    function _removeFromWhitelist(address _member) public onlyOwner {\n        require(_member != address(0x0), \"Zero address is not allowed\");\n        whitelist[_member] = false;\n\n        emit WhitelistChange(_member, false);\n    }\n\n    function _addToBlacklist(address _member) public onlyOwner {\n        require(_member != address(0x0), \"Zero address is not allowed\");\n        blacklist[_member] = true;\n\n        emit BlacklistChange(_member, true);\n    }\n\n    function _removeFromBlacklist(address _member) public onlyOwner {\n        require(_member != address(0x0), \"Zero address is not allowed\");\n        blacklist[_member] = false;\n\n        emit BlacklistChange(_member, false);\n    }\n\n    function isContract(address account) internal view returns (bool) {\n        // This method relies on extcodesize, which returns 0 for contracts in\n        // construction, since the code is only stored at the end of the\n        // constructor execution.\n\n        uint256 size;\n        // solhint-disable-next-line no-inline-assembly\n        assembly { size := extcodesize(account) }\n        return size > 0;\n    }\n}",
  "sourcePath": "/Users/xingchen/github/Quicksilver/contracts/QsConfig.sol",
  "compiler": {
    "name": "solc",
    "version": "0.5.16+commit.9c3226ce.Emscripten.clang"
  },
  "schemaVersion": "3.3.4",
  "updatedAt": "2021-05-26T14:36:04.592Z",
  "networkType": "ethereum",
  "devdoc": {
    "methods": {}
  },
  "userdoc": {
    "methods": {}
  }
}