{
  "contractName": "QsPriceOracleV2",
  "abi": [
    {
      "inputs": [],
      "payable": false,
      "stateMutability": "nonpayable",
      "type": "constructor"
    },
    {
      "anonymous": false,
      "inputs": [
        {
          "indexed": true,
          "internalType": "address",
          "name": "asset",
          "type": "address"
        },
        {
          "indexed": true,
          "internalType": "address",
          "name": "source",
          "type": "address"
        }
      ],
      "name": "AssetPriceSourceUpdated",
      "type": "event"
    },
    {
      "anonymous": false,
      "inputs": [
        {
          "indexed": true,
          "internalType": "address",
          "name": "previousGovernance",
          "type": "address"
        },
        {
          "indexed": true,
          "internalType": "address",
          "name": "newGovernance",
          "type": "address"
        }
      ],
      "name": "GovernanceTransferred",
      "type": "event"
    },
    {
      "anonymous": false,
      "inputs": [
        {
          "indexed": false,
          "internalType": "address",
          "name": "newAdmin",
          "type": "address"
        }
      ],
      "name": "PriceAdminAdded",
      "type": "event"
    },
    {
      "anonymous": false,
      "inputs": [
        {
          "indexed": false,
          "internalType": "address",
          "name": "newAdmin",
          "type": "address"
        }
      ],
      "name": "PriceAdminRemoved",
      "type": "event"
    },
    {
      "anonymous": false,
      "inputs": [
        {
          "indexed": false,
          "internalType": "address",
          "name": "priceAdmin",
          "type": "address"
        },
        {
          "indexed": false,
          "internalType": "address",
          "name": "asset",
          "type": "address"
        },
        {
          "indexed": false,
          "internalType": "uint256",
          "name": "previousPriceMantissa",
          "type": "uint256"
        },
        {
          "indexed": false,
          "internalType": "uint256",
          "name": "newPriceMantissa",
          "type": "uint256"
        }
      ],
      "name": "PriceAlert",
      "type": "event"
    },
    {
      "anonymous": false,
      "inputs": [
        {
          "indexed": false,
          "internalType": "address",
          "name": "asset",
          "type": "address"
        },
        {
          "indexed": false,
          "internalType": "uint256",
          "name": "previousPriceMantissa",
          "type": "uint256"
        },
        {
          "indexed": false,
          "internalType": "uint256",
          "name": "requestedPriceMantissa",
          "type": "uint256"
        },
        {
          "indexed": false,
          "internalType": "uint256",
          "name": "newPriceMantissa",
          "type": "uint256"
        }
      ],
      "name": "PricePosted",
      "type": "event"
    },
    {
      "constant": true,
      "inputs": [
        {
          "internalType": "address",
          "name": "",
          "type": "address"
        }
      ],
      "name": "errorHappened",
      "outputs": [
        {
          "internalType": "bool",
          "name": "",
          "type": "bool"
        }
      ],
      "payable": false,
      "stateMutability": "view",
      "type": "function"
    },
    {
      "constant": true,
      "inputs": [
        {
          "internalType": "address",
          "name": "",
          "type": "address"
        }
      ],
      "name": "errorInfo",
      "outputs": [
        {
          "internalType": "uint256",
          "name": "timestamp",
          "type": "uint256"
        },
        {
          "internalType": "uint256",
          "name": "previousPrice",
          "type": "uint256"
        },
        {
          "internalType": "uint256",
          "name": "errPrice",
          "type": "uint256"
        },
        {
          "internalType": "address",
          "name": "priceAdmin",
          "type": "address"
        }
      ],
      "payable": false,
      "stateMutability": "view",
      "type": "function"
    },
    {
      "constant": true,
      "inputs": [],
      "name": "governance",
      "outputs": [
        {
          "internalType": "address",
          "name": "",
          "type": "address"
        }
      ],
      "payable": false,
      "stateMutability": "view",
      "type": "function"
    },
    {
      "constant": true,
      "inputs": [],
      "name": "isPriceOracle",
      "outputs": [
        {
          "internalType": "bool",
          "name": "",
          "type": "bool"
        }
      ],
      "payable": false,
      "stateMutability": "view",
      "type": "function"
    },
    {
      "constant": true,
      "inputs": [],
      "name": "paused",
      "outputs": [
        {
          "internalType": "bool",
          "name": "",
          "type": "bool"
        }
      ],
      "payable": false,
      "stateMutability": "view",
      "type": "function"
    },
    {
      "constant": true,
      "inputs": [
        {
          "internalType": "address",
          "name": "",
          "type": "address"
        }
      ],
      "name": "priceAdmin",
      "outputs": [
        {
          "internalType": "bool",
          "name": "",
          "type": "bool"
        }
      ],
      "payable": false,
      "stateMutability": "view",
      "type": "function"
    },
    {
      "constant": true,
      "inputs": [
        {
          "internalType": "contract CToken",
          "name": "cToken",
          "type": "address"
        }
      ],
      "name": "getUnderlyingPrice",
      "outputs": [
        {
          "internalType": "uint256",
          "name": "",
          "type": "uint256"
        }
      ],
      "payable": false,
      "stateMutability": "view",
      "type": "function"
    },
    {
      "constant": false,
      "inputs": [
        {
          "internalType": "contract CToken",
          "name": "cToken",
          "type": "address"
        },
        {
          "internalType": "uint256",
          "name": "underlyingPriceMantissa",
          "type": "uint256"
        }
      ],
      "name": "setUnderlyingPrice",
      "outputs": [],
      "payable": false,
      "stateMutability": "nonpayable",
      "type": "function"
    },
    {
      "constant": true,
      "inputs": [
        {
          "internalType": "address",
          "name": "_asset",
          "type": "address"
        },
        {
          "internalType": "uint256",
          "name": "_price",
          "type": "uint256"
        }
      ],
      "name": "isValidPrice",
      "outputs": [
        {
          "internalType": "bool",
          "name": "",
          "type": "bool"
        }
      ],
      "payable": false,
      "stateMutability": "view",
      "type": "function"
    },
    {
      "constant": false,
      "inputs": [
        {
          "internalType": "address",
          "name": "_asset",
          "type": "address"
        },
        {
          "internalType": "uint256",
          "name": "_price",
          "type": "uint256"
        }
      ],
      "name": "setDirectPrice",
      "outputs": [],
      "payable": false,
      "stateMutability": "nonpayable",
      "type": "function"
    },
    {
      "constant": false,
      "inputs": [
        {
          "internalType": "address[]",
          "name": "_assets",
          "type": "address[]"
        },
        {
          "internalType": "uint256[]",
          "name": "_prices",
          "type": "uint256[]"
        }
      ],
      "name": "setDirectPrice",
      "outputs": [],
      "payable": false,
      "stateMutability": "nonpayable",
      "type": "function"
    },
    {
      "constant": false,
      "inputs": [
        {
          "internalType": "address[]",
          "name": "_assets",
          "type": "address[]"
        },
        {
          "internalType": "uint256[]",
          "name": "_prices",
          "type": "uint256[]"
        }
      ],
      "name": "setDirectPriceWithForce",
      "outputs": [],
      "payable": false,
      "stateMutability": "nonpayable",
      "type": "function"
    },
    {
      "constant": true,
      "inputs": [
        {
          "internalType": "address",
          "name": "asset",
          "type": "address"
        }
      ],
      "name": "assetPrices",
      "outputs": [
        {
          "internalType": "uint256",
          "name": "",
          "type": "uint256"
        }
      ],
      "payable": false,
      "stateMutability": "view",
      "type": "function"
    },
    {
      "constant": true,
      "inputs": [
        {
          "internalType": "address",
          "name": "asset",
          "type": "address"
        }
      ],
      "name": "getPriceInfo",
      "outputs": [
        {
          "internalType": "uint256",
          "name": "price",
          "type": "uint256"
        },
        {
          "internalType": "uint256",
          "name": "updatedAt",
          "type": "uint256"
        },
        {
          "internalType": "address",
          "name": "reportedBy",
          "type": "address"
        }
      ],
      "payable": false,
      "stateMutability": "view",
      "type": "function"
    },
    {
      "constant": false,
      "inputs": [
        {
          "internalType": "address",
          "name": "newPriceAdmin",
          "type": "address"
        }
      ],
      "name": "addPriceAdmin",
      "outputs": [],
      "payable": false,
      "stateMutability": "nonpayable",
      "type": "function"
    },
    {
      "constant": false,
      "inputs": [
        {
          "internalType": "address",
          "name": "newPriceAdmin",
          "type": "address"
        }
      ],
      "name": "removePriceAdmin",
      "outputs": [],
      "payable": false,
      "stateMutability": "nonpayable",
      "type": "function"
    },
    {
      "constant": false,
      "inputs": [
        {
          "internalType": "bool",
          "name": "_paused",
          "type": "bool"
        }
      ],
      "name": "setPaused",
      "outputs": [],
      "payable": false,
      "stateMutability": "nonpayable",
      "type": "function"
    },
    {
      "constant": false,
      "inputs": [
        {
          "internalType": "address",
          "name": "asset",
          "type": "address"
        },
        {
          "internalType": "bool",
          "name": "happened",
          "type": "bool"
        }
      ],
      "name": "setErrorHappened",
      "outputs": [],
      "payable": false,
      "stateMutability": "nonpayable",
      "type": "function"
    },
    {
      "constant": false,
      "inputs": [
        {
          "internalType": "address",
          "name": "newGovernance",
          "type": "address"
        }
      ],
      "name": "transferGovernance",
      "outputs": [],
      "payable": false,
      "stateMutability": "nonpayable",
      "type": "function"
    }
  ],
  "bytecode": "0x60806040526005805460ff1916905534801561001a57600080fd5b50600280546001600160a01b0319163317908190556001600160a01b03166000908152600160208190526040909120805460ff1916909117905561143e806100636000396000f3fe608060405234801561001057600080fd5b50600436106100f15760003560e01c806309a8acb0146100f6578063127ffda01461012457806316c38b3c1461015057806324759ef71461016f57806324e48a2d14610195578063275d86ed146102b85780632bdb70e3146102f25780635aa6e675146103185780635afc4c0b1461033c5780635c975abb146103915780635e9a523c1461039957806366331bba146103d157806378b4e96d146103d95780637e8af985146104075780638edbf43614610433578063d38bfff414610480578063e857b432146104a6578063f799051e146104cc578063fc57d4df146105ef575b600080fd5b6101226004803603604081101561010c57600080fd5b506001600160a01b038135169060200135610615565b005b6101226004803603604081101561013a57600080fd5b506001600160a01b038135169060200135610842565b6101226004803603602081101561016657600080fd5b5035151561090c565b6101226004803603602081101561018557600080fd5b50356001600160a01b031661096c565b610122600480360360408110156101ab57600080fd5b810190602081018135600160201b8111156101c557600080fd5b8201836020820111156101d757600080fd5b803590602001918460208302840111600160201b831117156101f857600080fd5b9190808060200260200160405190810160405280939291908181526020018383602002808284376000920191909152509295949360208101935035915050600160201b81111561024757600080fd5b82018360208201111561025957600080fd5b803590602001918460208302840111600160201b8311171561027a57600080fd5b919080806020026020016040519081016040528093929190818152602001838360200280828437600092019190915250929550610a11945050505050565b6102de600480360360208110156102ce57600080fd5b50356001600160a01b0316610b7e565b604080519115158252519081900360200190f35b6101226004803603602081101561030857600080fd5b50356001600160a01b0316610b93565b610320610c3c565b604080516001600160a01b039092168252519081900360200190f35b6103626004803603602081101561035257600080fd5b50356001600160a01b0316610c4b565b604080519485526020850193909352838301919091526001600160a01b03166060830152519081900360800190f35b6102de610c7d565b6103bf600480360360208110156103af57600080fd5b50356001600160a01b0316610c86565b60408051918252519081900360200190f35b6102de610ca5565b610122600480360360408110156103ef57600080fd5b506001600160a01b0381351690602001351515610caa565b6102de6004803603604081101561041d57600080fd5b506001600160a01b038135169060200135610d22565b6104596004803603602081101561044957600080fd5b50356001600160a01b0316610dba565b6040805193845260208401929092526001600160a01b031682820152519081900360600190f35b6101226004803603602081101561049657600080fd5b50356001600160a01b0316610de8565b6102de600480360360208110156104bc57600080fd5b50356001600160a01b0316610ed6565b610122600480360360408110156104e257600080fd5b810190602081018135600160201b8111156104fc57600080fd5b82018360208201111561050e57600080fd5b803590602001918460208302840111600160201b8311171561052f57600080fd5b9190808060200260200160405190810160405280939291908181526020018383602002808284376000920191909152509295949360208101935035915050600160201b81111561057e57600080fd5b82018360208201111561059057600080fd5b803590602001918460208302840111600160201b831117156105b157600080fd5b919080806020026020016040519081016040528093929190818152602001838360200280828437600092019190915250929550610eeb945050505050565b6103bf6004803603602081101561060557600080fd5b50356001600160a01b0316611017565b3360009081526001602052604090205460ff16610667576040805162461bcd60e51b815260206004820152601560248201526000805160206113ea833981519152604482015290519081900360640190fd5b60055460ff16156106a8576040805162461bcd60e51b815260206004820152600660248201526514185d5cd95960d21b604482015290519081900360640190fd5b6001600160a01b038216600090815260208190526040902054816106cc8482610d22565b15610775576040805160608082018352838252426020808401918252338486019081526001600160a01b038a811660008181528085528890209651808855945160018801559151600290960180546001600160a01b0319169690911695909517909455845193845283018690528284018590529082015290517fdd71a1d19fcba687442a1d5c58578f1e409af71a79d10fd95a4d66efd8fa9ae7916080908290030190a161083c565b604080516080808201835242825260208083018681528385018681523360608087018281526001600160a01b038d811660008181526003808a528c82209b518c5597516001808d0191909155965160028c015592519990960180546001600160a01b03191699909116989098179097556004855295879020805460ff191690921790915585519081529182015280840186905291820184905291517f31c928b2bfe885b951a40367e1c4536474e0d21de2cd0df492d64de9084c1c95929181900390910190a15b50505050565b3360009081526001602052604090205460ff16610894576040805162461bcd60e51b815260206004820152601560248201526000805160206113ea833981519152604482015290519081900360640190fd5b6000826001600160a01b0316636f307dc36040518163ffffffff1660e01b815260040160206040518083038186803b1580156108cf57600080fd5b505afa1580156108e3573d6000803e3d6000fd5b505050506040513d60208110156108f957600080fd5b505190506109078183610615565b505050565b6002546001600160a01b03163314610959576040805162461bcd60e51b81526020600482015260146024820152600080516020611360833981519152604482015290519081900360640190fd5b6005805460ff1916911515919091179055565b6002546001600160a01b031633146109b9576040805162461bcd60e51b81526020600482015260146024820152600080516020611360833981519152604482015290519081900360640190fd5b6001600160a01b038116600081815260016020908152604091829020805460ff19169055815192835290517fabf1d094d9e9c9351d9c0e02bfd4894eb625b9f845a0a8fd5e747565dae2ba0f9281900390910190a150565b3360009081526001602052604090205460ff16610a63576040805162461bcd60e51b815260206004820152601560248201526000805160206113ea833981519152604482015290519081900360640190fd5b60055460ff1615610aa4576040805162461bcd60e51b815260206004820152600660248201526514185d5cd95960d21b604482015290519081900360640190fd5b6000825111610ae45760405162461bcd60e51b81526004018080602001828103825260248152602001806113c66024913960400191505060405180910390fd5b8051825114610b3a576040805162461bcd60e51b815260206004820152601f60248201527f41737365747320616e642070726963657320617265206e6f74206d6174636800604482015290519081900360640190fd5b60005b825181101561090757610b76838281518110610b5557fe5b6020026020010151838381518110610b6957fe5b6020026020010151610615565b600101610b3d565b60046020526000908152604090205460ff1681565b6002546001600160a01b03163314610be0576040805162461bcd60e51b81526020600482015260146024820152600080516020611360833981519152604482015290519081900360640190fd5b6001600160a01b038116600081815260016020818152604092839020805460ff1916909217909155815192835290517fd5d03defe9897c2d1107395e3d398b0a1ba742edb0c72d5cb872d78b86ad94369281900390910190a150565b6002546001600160a01b031681565b60036020819052600091825260409091208054600182015460028301549290930154909291906001600160a01b031684565b60055460ff1681565b6001600160a01b0381166000908152602081905260409020545b919050565b600181565b6002546001600160a01b03163314610cf7576040805162461bcd60e51b81526020600482015260146024820152600080516020611360833981519152604482015290519081900360640190fd5b6001600160a01b03919091166000908152600460205260409020805460ff1916911515919091179055565b6001600160a01b038216600090815260208190526040812054610d4757506001610db4565b6001600160a01b038316600090815260208190526040812054610d7190600263ffffffff61111b16565b6001600160a01b03851660009081526020819052604081205491925090610d9f90600263ffffffff61116116565b90508184118015610daf57508084105b925050505b92915050565b6001600160a01b03908116600090815260208190526040902080546001820154600290920154909391921690565b6002546001600160a01b03163314610e35576040805162461bcd60e51b81526020600482015260146024820152600080516020611360833981519152604482015290519081900360640190fd5b6001600160a01b038116610e7a5760405162461bcd60e51b81526004018080602001828103825260258152602001806113806025913960400191505060405180910390fd5b6002546040516001600160a01b038084169216907f5f56bee8cffbe9a78652a74a60705edede02af10b0bbb888ca44b79a0d42ce8090600090a3600280546001600160a01b0319166001600160a01b0392909216919091179055565b60016020526000908152604090205460ff1681565b3360009081526001602052604090205460ff16610f3d576040805162461bcd60e51b815260206004820152601560248201526000805160206113ea833981519152604482015290519081900360640190fd5b6000825111610f7d5760405162461bcd60e51b81526004018080602001828103825260248152602001806113c66024913960400191505060405180910390fd5b8051825114610fd3576040805162461bcd60e51b815260206004820152601f60248201527f41737365747320616e642070726963657320617265206e6f74206d6174636800604482015290519081900360640190fd5b60005b82518110156109075761100f838281518110610fee57fe5b602002602001015183838151811061100257fe5b60200260200101516111ba565b600101610fd6565b6000816001600160a01b0316639af4ee7e6040518163ffffffff1660e01b815260040160206040518083038186803b15801561105257600080fd5b505afa158015611066573d6000803e3d6000fd5b505050506040513d602081101561107c57600080fd5b5051156110925750670de0b6b3a7640000610ca0565b600080836001600160a01b0316636f307dc36040518163ffffffff1660e01b815260040160206040518083038186803b1580156110ce57600080fd5b505afa1580156110e2573d6000803e3d6000fd5b505050506040513d60208110156110f857600080fd5b50516001600160a01b031681526020810191909152604001600020549050610ca0565b600061115a83836040518060400160405280601a815260200179536166654d6174683a206469766973696f6e206279207a65726f60301b8152506112bd565b9392505050565b60008261117057506000610db4565b8282028284828161117d57fe5b041461115a5760405162461bcd60e51b81526004018080602001828103825260218152602001806113a56021913960400191505060405180910390fd5b3360009081526001602052604090205460ff1661120c576040805162461bcd60e51b815260206004820152601560248201526000805160206113ea833981519152604482015290519081900360640190fd5b6001600160a01b0380831660008181526020818152604080832080548251606080820185528982524282870190815233838701908152898952978752915180855591516001850155955160029093018054939098166001600160a01b0319909316929092179096558151948552918401859052838101869052918301525183917fdd71a1d19fcba687442a1d5c58578f1e409af71a79d10fd95a4d66efd8fa9ae7919081900360800190a150505050565b600081836113495760405162461bcd60e51b81526004018080602001828103825283818151815260200191508051906020019080838360005b8381101561130e5781810151838201526020016112f6565b50505050905090810190601f16801561133b5780820380516001836020036101000a031916815260200191505b509250505060405180910390fd5b50600083858161135557fe5b049594505050505056fe476f7665726e616e63652072657175697265642e000000000000000000000000476f7665726e616e636520616464726573732073686f756c64206e6f74206265207a65726f536166654d6174683a206d756c7469706c69636174696f6e206f766572666c6f774174206c65617374206f6e6520617373657420707269636520697320726571756972656450726963652041646d696e2072657175697265642e0000000000000000000000a265627a7a723158204a194c9bbd282905306d0095c8d417cc12e613d29b96cd6435238fb3ed60e69664736f6c63430005100032",
  "source": "pragma solidity ^0.5.16;\n\nimport \"./compound/PriceOracle.sol\";\nimport \"./compound/CErc20.sol\";\nimport \"./IPriceCollector.sol\";\nimport \"./SToken.sol\";\nimport \"./compound/SafeMath.sol\";\n\ncontract QsPriceOracleV2 is PriceOracle, IPriceCollector {\n    struct ErrorInfo {\n        uint timestamp;\n        uint previousPrice;\n        uint errPrice;\n        address priceAdmin;\n    }\n\n    struct PriceInfo {\n        uint price;\n        uint updatedAt;\n        address reportedBy;\n    }\n    mapping(address => PriceInfo) prices;\n    mapping(address => bool) public priceAdmin;\n    address public governance;\n    mapping(address => ErrorInfo) public errorInfo;\n    mapping(address => bool) public errorHappened;\n    bool public paused = false;\n\n    using SafeMath for uint;\n\n    event PricePosted(address asset, uint previousPriceMantissa, uint requestedPriceMantissa, uint newPriceMantissa);\n    event GovernanceTransferred(address indexed previousGovernance, address indexed newGovernance);\n    event PriceAdminAdded(address newAdmin);\n    event PriceAdminRemoved(address newAdmin);\n    event PriceAlert(address priceAdmin, address asset, uint previousPriceMantissa, uint newPriceMantissa);\n    event AssetPriceSourceUpdated(address indexed asset, address indexed source);\n\n    modifier onlyPriceAdmin {\n        require(priceAdmin[msg.sender], \"Price Admin required.\");\n        _;\n    }\n\n    modifier onlyGovernance {\n        require(msg.sender == governance, \"Governance required.\");\n        _;\n    }\n\n    modifier whenNotPaused() {\n        require(!paused, \"Paused\");\n        _;\n    }\n\n    constructor() public {\n        governance = msg.sender;\n        priceAdmin[governance] = true;\n    }\n\n    function getUnderlyingPrice(CToken cToken) public view returns (uint) {\n        if (SToken(address(cToken)).isNativeToken()) {\n            return 1e18;\n        } else {\n            return prices[address(CErc20(address(cToken)).underlying())].price;\n        }\n    }\n\n    function setUnderlyingPrice(CToken cToken, uint underlyingPriceMantissa) public onlyPriceAdmin {\n        address asset = address(CErc20(address(cToken)).underlying());\n        setDirectPrice(asset, underlyingPriceMantissa);\n    }\n\n    function isValidPrice(address _asset, uint _price) public view returns (bool) {\n        // initial price is 0\n        if (prices[_asset].price == 0) return true;\n\n        uint min = prices[_asset].price.div(2);\n        uint max = prices[_asset].price.mul(2);\n\n        return _price > min && _price < max;\n    }\n\n    function setDirectPrice(address _asset, uint _price) public onlyPriceAdmin whenNotPaused {\n        uint previousPrice = prices[_asset].price;\n        uint newPrice = _price;\n        if (isValidPrice(_asset, _price)) {\n            prices[_asset] = PriceInfo(newPrice, block.timestamp, msg.sender);\n            emit PricePosted(_asset, previousPrice, newPrice,  prices[_asset].price);\n        } else {\n            errorInfo[_asset] = ErrorInfo(block.timestamp, previousPrice, newPrice, msg.sender);\n            errorHappened[_asset] = true;\n            emit PriceAlert(msg.sender, _asset, previousPrice, newPrice);\n        }\n    }\n\n    function setDirectPrice(address[] memory _assets, uint[] memory _prices) public onlyPriceAdmin whenNotPaused {\n        require(_assets.length > 0, \"At least one asset price is required\");\n        require(_assets.length == _prices.length, \"Assets and prices are not match\");\n\n        for (uint i = 0; i < _assets.length; i++) {\n            setDirectPrice(_assets[i], _prices[i]);\n        }\n    }\n\n    function setPrice(address _asset, uint _price) private onlyPriceAdmin {\n        uint previousPrice = prices[_asset].price;\n        uint newPrice = _price;\n        prices[_asset] = PriceInfo(newPrice, block.timestamp, msg.sender);\n        emit PricePosted(_asset, previousPrice, newPrice,  prices[_asset].price);\n    }\n\n    function setDirectPriceWithForce(address[] memory _assets, uint[] memory _prices) public onlyPriceAdmin {\n        require(_assets.length > 0, \"At least one asset price is required\");\n        require(_assets.length == _prices.length, \"Assets and prices are not match\");\n\n        for (uint i = 0; i < _assets.length; i++) {\n            setPrice(_assets[i], _prices[i]);\n        }\n    }\n\n    function assetPrices(address asset) external view returns (uint) {\n        return prices[asset].price;\n    }\n\n    function getPriceInfo(address asset) external view returns (uint price, uint updatedAt, address reportedBy) {\n        price = prices[asset].price;\n        updatedAt = prices[asset].updatedAt;\n        reportedBy = prices[asset].reportedBy;\n    }\n\n    function addPriceAdmin(address newPriceAdmin) public onlyGovernance {\n        priceAdmin[newPriceAdmin] = true;\n        emit PriceAdminAdded(newPriceAdmin);\n    }\n\n    function removePriceAdmin(address newPriceAdmin) public onlyGovernance {\n        priceAdmin[newPriceAdmin] = false;\n        emit PriceAdminRemoved(newPriceAdmin);\n    }\n\n    function setPaused(bool _paused) public onlyGovernance {\n        paused = _paused;\n    }\n\n    function setErrorHappened(address asset, bool happened) public onlyGovernance {\n        errorHappened[asset] = happened;\n    }\n\n    function transferGovernance(address newGovernance) public onlyGovernance {\n        require(newGovernance != address(0), \"Governance address should not be zero\");\n        emit GovernanceTransferred(governance, newGovernance);\n        governance = newGovernance;\n    }\n}\n",
  "sourcePath": "/Users/xingchen/github/Quicksilver/contracts/QsPriceOracleV2.sol",
  "compiler": {
    "name": "solc",
    "version": "0.5.16+commit.9c3226ce.Emscripten.clang"
  },
  "schemaVersion": "3.3.4",
  "updatedAt": "2021-05-26T14:36:04.573Z",
  "networkType": "ethereum",
  "devdoc": {
    "methods": {}
  },
  "userdoc": {
    "methods": {}
  }
}